S0130000534550342D47726F7570332E7372656388
S1130000E5C0000004C1000002C1000000C10000FE
S1130010FEC00000FCC00000FAC00000F8C00000F0
S1130020F6C00000F4C00000F2C00000F0C0000000
S11300303EC50000ECC00000EAC00000E8C00000BB
S1130040E6C00000E4C00000E2C00000E0C0000020
S1130050DEC00000DCC00000DAC00000D8C0000030
S1130060D6C000000C94EF270C944128D0C00000A7
S1130070CEC00000CCC00000CAC00000C8C0000050
S1130080C6C00000C4C00000C2C00000C0C0000060
S11300900C9485280C94D728BAC000000C948E2C9C
S11300A0B6C00000B4C00000B2C00000B0C0000080
S11300B0AEC00000ACC00000AAC00000A8C0000090
S11300C0A6C00000A4C00000A2C000000C941B291C
S11300D00C946D299CC000000C94B1290C94032A43
S11300E096C00000311B311B311B681B701B851B24
S11300F0311B311B681B701BB02C202D202D202D93
S1130100202D202D202D202DB02C202D202D202DF4
S1130110202D202D202D202DB22C202D202D202DE2
S1130120202D202D202D202D202D202D202D202D63
S1130130202D202D202D202DB22C202D202D202DC2
S1130140202D202D202D202D202D202D202D202D43
S1130150202D202D202D202D1C2D202D202D202D37
S1130160202D202D202D202DE72C202D202D202D5D
S1130170202D202D202D202D202D202D202D202D13
S1130180202D202D202D202DDB2C202D202D202D49
S1130190202D202D202D202DFF2C0E94720D8091CA
S11301A0E916823008F0BDD30E94AE1BF6CFCF9380
S11301B0DF931F92CDB7DEB7CE0101960E94AE1831
S11301C049810E94A31A0E94FA1AF6CF11241FBE75
S11301D0CFEFD1E2DEBFCDBF00E00CBF18E0A0E05E
S11301E0B2E0E8E3F7E600E00BBF02C007900D922F
S11301F0AC3DB107D9F729E1ACEDB8E001C01D92DF
S1130200A731B207E1F70E9415200C949A33F8CE77
S11302100F9301110CC0DC01CB0182239323A4238F
S1130220B523892B8A2B8B2B79F480E010C0DC0159
S1130230CB0182239323A423B523281739074A0724
S11302405B0721F080E003C081E001C081E00F91F1
S11302500895CF93DF938FE090E0AFD1EC01009746
S113026039F0FC011192119211921192CF018BD2AB
S1130270CE01DF91CF9108952F923F924F925F92DA
S11302806F927F928F929F92AF92BF92CF92DF92A2
S1130290EF92FF920F931F93CF93DF93EC014A01E8
S11302A05B01622E702E0E94BD0E288039804A8028
S11302B05B80A5019401C201B101AADF8823A1F0EA
S11302C0662089F1D501C40180959095A095B095DB
S11302D082219321A421B52188839983AA83BB8396
S11302E0C12CD12C760122C0C114D104E104F10443
S11302F0E9F0611004C040E050E0BA0104C040E0FD
S113030050E060E071E071107460482959296A294D
S11303107B2997018601CE0104960E94D511212CD8
S1130320312C210103C0C12CD12C76010E94FD0F78
S1130330CD28CE28CF2859F1811101C0F2D20E94D4
S113034097156B017C0191FD1FC00FB6F8940F92B5
S1130350C880D980EA80FB80072DA5019401C701DC
S1130360B60156DF882371F0662061F08094909482
S1130370A094B0948C209D20AE20BF2088829982C6
S1130380AA82BB820F900FBE160127015524C20119
S1130390B101DF91CF911F910F91FF90EF90DF900A
S11303A0CF90BF90AF909F908F907F906F905F9011
S11303B04F903F902F9008954F925F926F927F924B
S11303C0AF92BF92CF92DF92EF92FF920F931F935F
S11303D0CF93DF93EC016A017B018C01095F1F4F0E
S11303E00E94BD0EEB85FC8588819981AA81BB8121
S11303F0C82AD92AEA2AFB2AC882D982EA82FB823D
S1130400C12CD12C76013DC0A480B580808191811E
S1130410A281B381AC01BD017727B2FD0EC0488033
S113042059806A807B80442255226622772245289F
S11304304628472889F420E012C0488059806A8001
S11304407B80442255226622772244155505660591
S1130450770521F020E003C021E001C021E0222340
S113046071F0B0FF04C0C42AD52AE62AF72A4881CD
S113047059816A817B817260CF010E941013EA2D39
S1130480FB2DE017F10709F0BFCFC094D094E0949E
S1130490F09488819981AA81BB81C822D922EA2259
S11304A0FB22C882D982EA82FB820E94FD0F688106
S11304B079818A819B81DF91CF911F910F91FF9068
S11304C0EF90DF90CF90BF90AF907F906F905F9050
S11304D04F900895E8EEF8E0ACEEB8E0B183A08365
S11304E013821282E4E9F6E1F093E708E093E60868
S11304F0138212821182108288EA9DE013969C93E3
S11305008E931297ED93FC939093E3088093E20803
S11305109093E5088093E40880E090E89093DD08E8
S11305208093DC080895CF93DF93EC01A8EEB8E044
S113053001C0DF01ED91FC911197EC17FD07C8F3A1
S113054012968D919C9113979D01280F391FC21704
S1130550D30749F42A813B81820F931F13969C93FE
S11305608E931297ED018A819B819E01280F391F7A
S1130570E217F307C1F42091E6083091E708E21787
S1130580F30771F022813381820F931F9B838A8347
S1130590ED91FC911197808191819983888305C0A5
S11305A03983288302C0F983E883CA17DB0711F073
S11305B0CD93DC93DF91CF910895EF92FF920F9347
S11305C01F93CF93DF938C010E94BD0E8091E608A8
S11305D09091E708892B09F47DDF8091DC089091E4
S11305E0DD0880239123892B09F076C001151105BC
S11305F049F0C80104960817190718F000E010E044
S113060001C08C010115110509F469C08091E40849
S11306109091E5088017910708F464C0C091E80838
S1130620D091E908E8EEF8E002C0FE01EC018A810D
S11306309B818017910720F4888199810097A9F7FD
S11306408091E6089091E708C817D90709F44DC0CE
S1130650E080F18084E0E80EF11C88819981918327
S113066080832A813B81201B310B2930310548F0DE
S1130670CE01800F911FFC01338322831B830A83E5
S113068052DF2A813B818091E4089091E508821B26
S1130690930B9093E5088093E4084091E20850910D
S11306A0E3088417950720F49093E3088093E20805
S11306B08091DC089091DD08282B392B3B832A8319
S11306C0198218828091E0089091E1080196909334
S11306D0E1088093E0080BC0E12CF12C08C0E12C68
S11306E0F12C05C0E12CF12C02C0E12CF12C0E946C
S11306F0FD0FE114F10411F40E94BA1BC701DF914C
S1130700CF911F910F91FF90EF9008950F931F9336
S1130710CF93DF93009791F1EC0124974A815B8199
S11307202091DC083091DD08BA0162237323672B22
S113073029F168817981672B09F520953095242367
S113074035233B832A830E94BD0E8A819B8120919D
S1130750E4083091E508820F931F9093E508809395
S1130760E408CE01E0DE8091DE089091DF08019676
S11307709093DF088093DE080E94FD0FDF91CF91F4
S11307801F910F910895FC010396928381834FEF8B
S11307905FEFBA01438354836583768390878783AD
S11307A09287818710820895FC011386128608952A
S11307B00F931F93CF93DF93EB01088119812A8153
S11307C03B810F3F4FEF14072407340721F4FC014A
S11307D0A185B28511C0DC01139601C0DF01149616
S11307E0ED91FC91159740815181628173810417C9
S11307F015072607370790F71496ED91FC91159786
S1130800FD83EC83D783C683BF83AE831596DC93C5
S1130810CE9314979B878A87FC0120812F5F2083C6
S1130820DF91CF911F910F910895CF93DF93FC0136
S1130830A285B385C481D581868197819F838E8368
S1130840C681D781848195819D838C8311968D91F6
S11308509C911297E817F90731F4868197811296D3
S11308609C938E931197138612868C9181508C934E
S11308708C91DF91CF910895A89590EC88E10FB603
S1130880F894A895809360000FBE9093600008953B
S1130890FC01608331977083319710823197108205
S11308A0319720E820833197108231971082319755
S11308B01082779740833197508386970895DCDFC1
S11308C0A0915717B0915817CD91CDBFDD91DEBFE0
S11308D0FF91EF91DF91CF91BF91AF919F918F9154
S11308E07F916F915F914F913F912F911F910F9144
S11308F0FF90EF90DF90CF90BF90AF909F908F903C
S11309007F906F905F904F903F902F901F900F902B
S11309100CBE0F900BBE0F900FBE0F90089581E098
S113092008950F920FB6F8940F920BB60F920CB66F
S11309300F921F9211242F923F924F925F926F92C7
S11309407F928F929F92AF92BF92CF92DF92EF925B
S1130950FF920F931F932F933F934F935F936F9344
S11309607F938F939F93AF93BF93CF93DF93EF9333
S1130970FF93A0915717B09158170DB60D920EB66C
S11309800D920E945911A0915717B0915817CD910B
S1130990CDBFDD91DEBFFF91EF91DF91CF91BF918C
S11309A0AF919F918F917F916F915F914F913F9103
S11309B02F911F910F91FF90EF90DF90CF90BF90F8
S11309C0AF909F908F907F906F905F904F903F90EB
S11309D02F901F900F900CBE0F900BBE0F900FBE68
S11309E00F9008950F920FB6F8940F920BB60F92D2
S11309F00CB60F921F9211242F923F924F925F9246
S1130A006F927F928F929F92AF92BF92CF92DF921A
S1130A10EF92FF920F931F932F933F934F935F9304
S1130A206F937F938F939F93AF93BF93CF93DF93F2
S1130A30EF93FF93A0915717B09158170DB60D92ED
S1130A400EB60D9213BE0E94D10E81110E9459114F
S1130A50A0915717B0915817CD91CDBFDD91DEBF4E
S1130A60FF91EF91DF91CF91BF91AF919F918F91C2
S1130A707F916F915F914F913F912F911F910F91B2
S1130A80FF90EF90DF90CF90BF90AF909F908F90AA
S1130A907F906F905F904F903F902F901F900F909A
S1130AA00CBE0F900BBE0F900FBE0F9008959ADFEF
S1130AB01895DC0153962C915397222341F05A96B2
S1130AC0ED91FC915B9790818AE0891B089580E009
S1130AD008950FB6F8940F92FC01868D811102C01F
S1130AE081E001C080E00F900FBE08950FB6F89426
S1130AF00F92FC01268D878D281302C081E001C06E
S1130B0080E00F900FBE08950F931F93CF93DF9350
S1130B10EC01042F1E8D48A141110CC088819981DC
S1130B20892B09F042C08C819D810E94D5141D82BD
S1130B301C8242C0011117C050E08A819B810E942F
S1130B401D3028A18A819B81820F911D9B838A83FA
S1130B502C813D818217930750F1888199819B8371
S1130B608A8380E029C050E08E819F810E941D30DD
S1130B7088A190E09195819591092E813F81280F5C
S1130B80391F3F832E83488159812417350730F458
S1130B902C813D81820F931F9F838E83023049F401
S1130BA0112349F0115080E007C080E005C080E0C7
S1130BB003C080E001C080E01F5F1E8FDF91CF91F2
S1130BC01F910F910895FC0140A14423A9F050E026
S1130BD026813781240F351F3783268384819581AD
S1130BE02817390720F08081918197838683CB0170
S1130BF0668177810C941D3008951F93CF93DF9302
S1130C00EC010FB6F8940F921AA10BC08B898823BC
S1130C1051F0CE0143960E94611281110E94371453
S1130C20115011169CF38FEF8AA30F900FBE0FB6CD
S1130C30F8940F9219A10BC08885882351F0CE0136
S1130C4008960E94611281110E94371411501116E6
S1130C509CF38FEF89A30F900FBEDF91CF911F916B
S1130C600895CF93DF93EC010FB6F8940F92E881C7
S1130C70F9818F8D28A190E030E0829FA001839FAD
S1130C80500D929F500D11244E0F5F1F5D834C83B6
S1130C901E8EFB83EA830197289FA001299F500D94
S1130CA0389F500D1124CF01840F951F9F838E838D
S1130CB08FEF89A38AA361110BC08885882371F003
S1130CC0CE0108960E946112882341F02ADE06C0F4
S1130CD0CE01089658DDCE01439655DD0F900FBE28
S1130CE081E0DF91CF9108950F931F93F801611173
S1130CF003C01183008302C051834083878F60A3A4
S1130D0061E0CF01AEDF1F910F910895DF92EF9262
S1130D10FF920F931F93CF93DF93F82EE62ED42EDA
S1130D20869FC0011124839648DCEC01009741F0B2
S1130D308C012D2DAC014D5D5F4F6E2D8F2DD4DFB9
S1130D40CE01DF91CF911F910F91FF90EF90DF9033
S1130D500895CF92DF92EF92FF920F931F93CF9358
S1130D60DF93CDB7DEB729970FB6F894DEBF0FBE79
S1130D70CDBF7C016B012E833F834887598710E0E8
S1130D800FB6F8940F92F701968D878D981710F08F
S1130D900230B1F4402FB601C701B6DEF7019389E2
S1130DA0992341F0C70143960E946112882321F0E0
S1130DB0B8DD02C08111B5DD0F900FBE81E04CC0DB
S1130DC08E819F81A885B985892B8A2B8B2B21F451
S1130DD00F900FBE80E040C0111105C0CE010196F6
S1130DE00E94C01311E00F900FBEC7D70FB6F8943E
S1130DF00F92F70181A18F3F09F411A2F70182A19B
S1130E008F3F09F412A20F900FBEBE016A5F7F4F9D
S1130E10CE0101960E94D113811119C0C70166DE6B
S1130E20882381F04E815F8168857985C7010896A2
S1130E300E94BE11C701E1DE0E94FD0F8111A0CF07
S1130E4070DD9ECFC701D9DE0E94FD0F99CFC70187
S1130E50D4DE0E94FD0F80E029960FB6F894DEBF21
S1130E600FBECDBFDF91CF911F910F91FF90EF90F7
S1130E70DF90CF9008950F93009769F0FC011582DD
S1130E80148211821082168200E020E030E0A90171
S1130E9060E070E05EDF0F910895CF93DF93482FF9
S1130EA060E081E033DFEC01E6DFCE01DF91CF913A
S1130EB00895EF92FF920F931F93CF93DF938A01CC
S1130EC0FC01568D378D531710F02230F9F4422F60
S1130ED07801EC011AA18E8DCE0116DE1F3F81F43C
S1130EE08B898823A9F0CE0143960E94611288233E
S1130EF089F0E114F10481F081E0F70180830DC0F1
S1130F00FF24F394F10EFAA281E007C080E005C04B
S1130F1081E003C081E001C081E0DF91CF911F91A6
S1130F200F91FF90EF900895CF92DF92EF92FF928E
S1130F300F931F93CF93DF93CDB7DEB729970FB6E7
S1130F40F894DEBF0FBECDBF8C016B012E833F83AF
S1130F5048875987E12C0FB6F8940F92F801F68C64
S1130F60FF2099F0B601C8012EDEFA94F801F68E3E
S1130F708085882331F0C80108960E94611281118E
S1130F80D0DC0F900FBE81E04FC08E819F81A88579
S1130F90B985892B8A2B8B2B21F40F900FBE80E00F
S1130FA043C0E11006C0CE0101960E94C013EE2496
S1130FB0E3940F900FBEE1D60FB6F8940F92F801A8
S1130FC081A18F3F09F411A2F80182A18F3F09F496
S1130FD012A20F900FBEBE016A5F7F4FCE01019631
S1130FE00E94D113811117C0C80173DD882379F0E1
S1130FF04E815F8168857985C80143960E94BE1140
S1131000C801FBDDFAD78111A6CF8BDCA4CFC801C0
S1131010F4DDF3D7A0CFC801F0DDEFD7C80159DD67
S1131020882309F498CF80E029960FB6F894DEBFA0
S11310300FBECDBFDF91CF911F910F91FF90EF9025
S1131040DF90CF900895EF92FF920F931F93CF9369
S1131050DF93CDB7DEB729970FB6F894DEBF0FBE86
S1131060CDBF8C014E835F8368877987E12CF12C97
S11310700FB6F8940F92F801868D8823C9F0815039
S1131080868F80819181892B29F40E94C115F801F2
S113109095838483F8018085882331F0C8010896FC
S11310A00E94611281113DDC0F900FBE81E06FC080
S11310B08E819F81A885B985892B8A2B8B2B21F45E
S11310C00F900FBE80E063C0F11006C0CE01019600
S11310D00E94C013FF24F3940F900FBE4ED60FB698
S11310E0F8940F92F80181A18F3F09F411A2F8013D
S11310F082A18F3F09F412A20F900FBEBE016A5F56
S11311007F4FCE0101960E94D113811126C0C801E0
S1131110E0DC8823F1F0F80180819181892B51F47E
S11311200FB6F8940F92848195810E944E14E82E94
S11311300F900FBE4E815F8168857985C801439603
S11311400E94BE11C80159DD58D7811191CFE9DB46
S11311508FCFC80152DD51D78BCFC8014EDD4DD79B
S1131160C801B7DC882309F483CFEE2079F00FB6E9
S1131170F8940F92C8019DDC682FF8018481958151
S11311800E9430150F900FBE80E001C080E02996C8
S11311900FB6F894DEBF0FBECDBFDF91CF911F9184
S11311A00F91FF90EF900895CF93DF93EC010FB66A
S11311B0F8940F9289A18F3F09F419A28AA18F3F55
S11311C009F41AA20F900FBE8E8D811104C0CE01B6
S11311D043960E941F12CE0110DDDF91CF91089536
S11311E0FC014481558122813381240F351F808184
S11311F09181B901681B790BCB016417750710F055
S1131200841B950B08950F93FC018FE0DF011D9261
S11312108A95E9F7758764875583448337832683E2
S113122006870F910895AF92BF92CF92DF92EF920B
S1131230FF920F931F93CF93DF936C015B017A01AD
S1131240FC01C281D381048115810C1B1D0B401745
S1131250510708F48A01F60184859585A801B50132
S11312608C0F9D1F0E941D300E151F0558F4A701F9
S1131270401B510BB501600F711FF60184859585E4
S11312800E941D30CE018E0D9F1DF60124813581F3
S11312908217930710F0821B930BF60193838283CA
S11312A0C701DF91CF911F910F91FF90EF90DF90D5
S11312B0CF90BF90AF900895CF92DF92EF92FF92BC
S11312C00F931F93CF93DF931F921F92CDB7DEB777
S11312D07C016B015A83498321153105C1F0FC015E
S11312E0868580FD08C04217530708F49A013A83A3
S11312F0298381E00FC02017310758F042E050E005
S1131300BE016F5F7F4FC7018EDF81E003C080E0C5
S113131001C080E0882331F049815A81B601C701B8
S113132082DF02C080E090E00F900F90DF91CF91B8
S11313301F910F91FF90EF90DF90CF900895AF929F
S1131340BF92CF92DF92EF92FF920F931F93CF93AE
S1131350DF937C015B01E9014217530708F4EA01BA
S1131360209781F1F7010081118184819581801B8F
S1131370910B6E018C179D0708F46C01F7016485CD
S11313807585600F711FA601C5010E941D30CC1622
S1131390DD0658F4AE014C195D09F70164857585C5
S11313A0C5018C0D9D1D0E941D300C0F1D1FF701E2
S11313B0848195810817190710F0081B190BF70190
S11313C011830083CE01DF91CF911F910F91FF9084
S11313D0EF90DF90CF90BF90AF9008956F927F927F
S11313E08F929F92AF92BF92CF92DF92EF92FF9231
S11313F00F931F93CF93DF931F921F92CDB7DEB746
S11314006C014B015A01790101151105B1F0FC0180
S113141060807180A801BE016F5F7F4F90DF89817A
S11314209A81E01AF10AA816B90630F4F60171821D
S11314306082A12CB12C01C05C019701A501B4010B
S1131440C6017DDF0F900F90DF91CF911F910F9117
S1131450FF90EF90DF90CF90BF90AF909F908F90D0
S11314607F906F900895CF92DF92EF92FF920F9347
S1131470CF93DF93EC016B01413011F401E001C023
S113148000E0C114D10419F4CC24C394D12CCE01AE
S11314904096C817D90720F421968FD87C0102C042
S11314A0E12CF12CE114F10439F09601AE01B701FD
S11314B0615F7F4FC701A7DEC701DF91CF910F9115
S11314C0FF90EF90DF90CF9008950F930FB6F894AC
S11314D00F92FC0120853185232B71F422853385FD
S11314E0232B61F426813781448155816485758578
S11314F0068589DE81E003C080E001C080E00F90B2
S11315000FBE0F910895FC01248135818081918162
S1131510820F931F42815381841B950B019782177D
S1131520930710F0821B930B08952F923F924F92D2
S11315305F926F927F928F929F92AF92BF92CF925F
S1131540DF92EF92FF920F931F93CF93DF93CDB768
S1131550DEB72B970FB6F894DEBF0FBECDBF4C019C
S11315607B876A871A010E831F8328873987FC01CA
S1131570848195810197268520FF0CC02A01F2E021
S11315804F0E511C8415950558F41E821F8218862F
S1131590198606C08417950710F02A0101C02C0192
S11315A08E819F81A885B985892B8A2B8B2B09F481
S11315B038C0CE0101960E94AA130FB6F8940F9278
S11315C0C401A1DF3C018415950540F560E080E08D
S11315D090E00E9494180E943B14F4019387828740
S11315E00F900FBEAE80BF80C884D984E12CF12C4B
S11315F000E010E0980140E050E0BA0180E00E9471
S1131600D315F40113861286BE016A5F7F4FCE01A3
S113161001960E94D113882381F205C00F900FBE5A
S113162002C0612C712C6114710419F4C4016BDFC4
S11316303C0182019301A1016A857B85C4013CDEE2
S11316406C01892BE9F0C401CBDDF40126813781DB
S113165082179307A8F091D3F40180859185892B93
S113166071F080859185E12CF12C00E020E030E0E0
S1131670A90160E00E947B16F40111861086BDD496
S1131680C6012B960FB6F894DEBF0FBECDBFDF9117
S1131690CF911F910F91FF90EF90DF90CF90BF906B
S11316A0AF909F908F907F906F905F904F903F90FE
S11316B02F900895AF92BF92CF92DF92EF92FF9254
S11316C00F931F93CF93DF93EC017B015A016901C0
S11316D08E8580FF04C08A010E5F1F4F01C08A01FE
S11316E0CE0111DF9C01A501B701CE01E5DD5C014E
S11316F0892BC1F0CE0174DD2E813F8182179307BF
S113170088F088859985892B69F088859985E12CED
S1131710F12C00E020E030E0A90160E00E947217A3
S113172019861886C501DF91CF911F910F91FF9003
S1131730EF90DF90CF90BF90AF9008954F925F925B
S11317406F927F928F929F92AF92BF92CF92DF92CD
S1131750EF92FF920F931F93CF93DF93EC012B0132
S11317603A01580169018E8580FF05C06894882478
S113177081F8912C02C0812C912CA114B104C104D4
S1131780D10441F10FB6F8940F92CE0129DD7C010A
S11317908816990648F060E080E090E00E94941872
S11317A00E943B14998788870F900FBE8E149F0464
S11317B0A0F0E12CF12C00E010E0980140E050E0B2
S11317C0BA0180E00E94D31519861886CE0108DD7F
S11317D07C0103C0CE0104DD7C018E149F04E8F477
S11317E084019701A301B201CE01F8DD6C01892BBC
S11317F0B1F0C3D28A859B85892B69F08A859B8544
S1131800E12CF12C00E020E030E0A90160E00E942E
S11318107B161B861A86F1D302C0C12CD12CC601BB
S1131820DF91CF911F910F91FF90EF90DF90CF90B8
S1131830BF90AF909F908F907F906F905F904F90EC
S11318400895E091D116F091D216808181110CC0D7
S11318508FEF9FEFDC0180939B1690939C16A093CF
S11318609D16B0939E160895E091D116F091D2166C
S11318700780F085E02D80819181A281B3818093DE
S11318809B1690939C16A0939D16B0939E16089554
S1131890CF93DF93EC018B8D9C8D0E948603CE0148
S11318A00E948603DF91CF9108954F925F926F92C9
S11318B07F928F929F92AF92BF92CF92DF92EF92DC
S11318C0FF920F93CF93DF932C015B014A013901FF
S11318D0E60165EA70E08B8D9C8D0E9426308B8D2D
S11318E09C8D21E0821A9108880E991EA114B104DE
S11318F089F415C0822F90E0F501E80FF91F3081BB
S1131900DE01A80FB91F5D963C938081882329F0DE
S11319102F5F01C020E0203168F31CA601C01D8E9A
S11319200A3008F009E00A8F0DA71EA6CE01029620
S11319300E94D403CE010E960E94D403DB87CA878B
S11319408AE090E0A0E0B0E0801B9109A109B10910
S11319508E879F87A88BB98BDF8BCE8B84E0FE01AB
S1131960BF96DF011D928A95E9F71BAAA301B20174
S1131970C4010E94480499838883E114F10419F096
S1131980F701D183C083DF91CF910F91FF90EF9046
S1131990DF90CF90BF90AF909F908F907F906F908B
S11319A05F904F900895CF93C0E009C02BE0C29F91
S11319B0C00111248751994E0E94C303CF5FCA30DE
S11319C0A8F38EED96E10E94C30383ED96E10E9495
S11319D0C30384EC96E10E94C30389EB96E10E9461
S11319E0C3038DEA96E10E94C3038EED96E19093C2
S11319F0D2168093D11683ED96E19093D0168093FE
S1131A00CF16CF910895CF93DF93EC010FB6F894DE
S1131A100F928091AC168F5F8093AC16809157170C
S1131A2090915817892B51F4D0935817C093571796
S1131A308091AC16813091F4B6DF10C08091A61667
S1131A4081110CC0E0915717F0915817928D8A8D2F
S1131A50891720F0D0935817C093571780919F1679
S1131A608F5F80939F16EA8D8091A7168E1710F4CE
S1131A70E093A7168BE08E9FF0011124E751F94EF5
S1131A800180F281E02DFF83EE832681378139873F
S1131A902887A681B7819E012E5F3F4F15963C9300
S1131AA02E93149737832683EA8D8E9FF001112499
S1131AB0E751F94EFD87EC8780818F5F80830F901B
S1131AC00FBE8091A616882351F0E0915717F0912C
S1131AD05817928D8A8D981710F40E949104DF9103
S1131AE0CF910895CF93DF931BC00FB6F8940F9254
S1131AF0E091C016F091C116C085D185CE01029641
S1131B000E9415048091AC1681508093AC1680918C
S1131B10B81681508093B8160F900FBECE01B8DE70
S1131B208091B8168111E1CFDF91CF9108958F9202
S1131B309F92AF92BF92CF92DF92EF92FF92CF9398
S1131B40DF936B017C01C42F8090A8169090A91696
S1131B50A090AA16B090AB16809157179091581781
S1131B6002960E9415048FEFC816D806E806F806F8
S1131B70B1F5CC23A1F1EDEAF6E1A181B281C091E6
S1131B805717D0915817BF83AE83C0915717D09180
S1131B90581716968D919C91179799878887169652
S1131BA0CD91DC9117978091571790915817029611
S1131BB09D838C838091571790915817029617969E
S1131BC09C938E931697A0915717B09158171D9612
S1131BD0FC93EE931C9780818F5F80833FC0C80C79
S1131BE0D91CEA1CFB1CE0915717F0915817C282CC
S1131BF0D382E482F582C814D904EA04FB0468F4AD
S1131C0060915717709158178091CF169091D01604
S1131C106E5F7F4F0E94D80321C060915717709167
S1131C2058178091D1169091D2166E5F7F4F0E9403
S1131C30D80380919B1690919C16A0919D16B0910B
S1131C409E16C816D906EA06FB0640F4C0929B16F7
S1131C50D0929C16E0929D16F0929E16DF91CF9141
S1131C60FF90EF90DF90CF90BF90AF909F908F90B8
S1131C7008952F923F924F925F926F927F928F922C
S1131C809F92AF92BF92CF92DF92EF92FF920F9307
S1131C90CF93DF933C011B014A012901CA010E9431
S1131CA0DD026C01892B71F084E390E00E94DD0277
S1131CB0EC01892B19F0DC8ECB8E06C0C6010E9484
S1131CC0860302C0C0E0D0E0209761F0A12CB12CC3
S1131CD06E019201A401B101C301E7DDCE0193DEDF
S1131CE081E001C08FEFDF91CF910F91FF90EF90D2
S1131CF0DF90CF90BF90AF909F908F907F906F9028
S1131D005F904F903F902F900895EF92FF920F9322
S1131D100F2EF9E9EF2EF6E1FF2EF02D00E020E082
S1131D2030E040EC50E06FE672E08DEC90E0A1DF33
S1131D30813011F40E9438198130C9F4F8948FEF7E
S1131D409FEFDC0180939B1690939C16A0939D16A5
S1131D50B0939E1681E08093A6161092A816109256
S1131D60A9161092AA161092AB160E945F048091D5
S1131D7006020F91FF90EF900895809198168F5F5F
S1131D808093981608950FB6F8940F926091A81650
S1131D907091A9168091AA169091AB160F900FBE60
S1131DA00895CF92DF92EF92FF92CF93DF938091C9
S1131DB09816811105C1C090A816D090A916E0907C
S1131DC0AA16F090AB168FEFC81AD80AE80AF80AD8
S1131DD0C092A816D092A916E092AA16F092AB1659
S1131DE0C114D104E104F104B1F48091D1169091AD
S1131DF0D2162091CF163091D0163093D21620935C
S1131E00D1169093D0168093CF168091A0168F5F31
S1131E108093A01616DD80919B1690919C16A0913C
S1131E209D16B0919E16C816D906EA06FB0620F444
S1131E3080E0B2C081E001C080E0E091D116F09171
S1131E40D216908191110CC04FEF5FEFBA0140930D
S1131E509B1650939C1660939D1670939E169CC07F
S1131E60E091D116F091D2160780F085E02D008420
S1131E70F185E02D4281538164817581C416D506B4
S1131E80E606F70648F440939B1650939C1660931D
S1131E909D1670939E1680C0A485B585C681D78192
S1131EA0208531853F832E83C085D1852681378166
S1131EB03D832C8311964D915C9112979F012E5F67
S1131EC03F4F4217530731F44085518512965C9376
S1131ED04E931197158614869C9191509C93A08DD6
S1131EE0B18D109709F1C289D389448955895F83DB
S1131EF04E83C489D589428953895D834C83119665
S1131F006D917C911297AF01425F5F4F6417750723
S1131F1031F44489558912965C934E931197118E2E
S1131F20108E9C9191509C93A28D9091A7169A1714
S1131F3010F4A093A7169BE09A9FD0011124A751F7
S1131F40B94E11960D90BC91A02DB783A683169619
S1131F504D915C911797518740871696CD91DC91EE
S1131F6017973D832C8317963C932E931697A28D37
S1131F709A9FD0011124A751B94EB587A4879C918B
S1131F809F5F9C93228DE0915717F0915817928D83
S1131F90291708F04FCF51CFE0915717F0915817F8
S1131FA0E28D9BE0E99FF0011124E751F94E908105
S1131FB0923008F081E09091A116911116C016C0DC
S1131FC08091A2169091A316A091A416B091A51683
S1131FD00196A11DB11D8093A2169093A316A09300
S1131FE0A416B093A51680E001C081E0DF91CF91E3
S1131FF0FF90EF90DF90CF900895CF92DF92EF9211
S1132000FF92CF93DF930FB6F8940F9280919816B6
S1132010815080939816809198168111BEC080914A
S1132020AC16811188C0BCC0E091CB16F091CC16DF
S11320300084F185E02DA08DB18DC289D389848976
S113204095899F838E83C489D589828993899D8349
S11320508C8311962D913C911297CF010E962817DF
S1132060390731F48489958912969C938E9311973C
S1132070118E108E8C9181508C93A485B585C68168
S1132080D781808591859F838E83C085D185868104
S113209097819D838C8311968D919C9112979F01BA
S11320A02E5F3F4F8217930731F4808591851296F6
S11320B09C938E931197158614868C9181508C93E2
S11320C0A28D8091A7168A1710F4A093A7168BE00F
S11320D08A9FD0011124A751B94E11960D90BC913D
S11320E0A02DB783A68316964D915C9117975187BF
S11320F040871696CD91DC9117973D832C831796D4
S11321003C932E931697A28D8A9FD0011124A75138
S1132110B94EB587A4878C918F5F8C93928DA091D3
S11321205717B09158175A968C91981730F081E050
S11321308093A11602C0E0E0F0E08091C416811102
S113214073CFEF2B09F07DDBC090A216D090A316BD
S1132150E090A416F090A516C114D104E104F10492
S1132160A1F01FDE882319F081E08093A11681E09D
S1132170C81AD108E108F108A1F71092A21610922A
S1132180A3161092A4161092A5168091A116882366
S113219031F00E94910481E003C080E001C080E03E
S11321A00F900FBEDF91CF91FF90EF90DF90CF9013
S11321B008958F929F92AF92BF92CF92DF92EF9247
S11321C0FF921F93CF93DF93EC016A017B01D5DD6E
S11321D08090A8169090A916A090AA16B090AB165D
S11321E088819981AA81BB81AC01BD014C0D5D1D23
S11321F06E1D7F1D88169906AA06BB0660F4481753
S113220059076A077B0798F484169506A606B7064D
S113221080F010E013C0481759076A077B0758F08D
S113222084169506A606B70640F010E007C010E035
S113223005C011E003C011E001C011E048835983D7
S11322406A837B83112341F0CB01BA0168197909B0
S11322508A099B0940E06BDCD0DE811102C00E9438
S11322609104812FDF91CF911F91FF90EF90DF9028
S1132270CF90BF90AF909F908F900895CF92DF92B0
S1132280EF92FF926B017C01672B682B692B39F06D
S113229074DD40E0C701B6014ADCAFDE01C080E076
S11322A0811102C00E949104FF90EF90DF90CF90C3
S11322B0089580919816882321F081E08093A116D7
S11322C008951092A116E0915717F09158172081A4
S11322D03181E0915717F0915817838D948D8217AF
S11322E0930760F06091571770915817635E7F4FA2
S11322F080915717909158170E94C61B8091A7167A
S113230001C08150282F30E09BE0929FF001939F01
S1132310F00D1124E751F94E9081992391F39BE03C
S1132320929FA001939F500D1124DF010180F2813F
S1132330E02D0480F581E02D1296FC93EE93119725
S11323404451594EE417F50729F444815581FD01A0
S1132350528341839BE0929FF001939FF00D1124DF
S1132360E751F94E0180F281E02D208531853093CB
S11323705817209357178093A7160895CF92DF928A
S1132380EF92FF926A017B01609157177091581781
S1132390625F7F4F0E94D80341E0C701B601C7DBEB
S11323A0FF90EF90DF90CF9008950F931F93CF93FA
S11323B0DF93FC01A0915717B091581770681E96CF
S11323C04D935D936D937C935197A181B281C0919C
S11323D05717D0915817BB8BAA8BC0915717D09120
S11323E0581716968D919C9117979D8B8C8B1696EA
S11323F0CD91DC91179780915717909158170E96AD
S11324009D838C8380915717909158170E96179639
S11324109C938E931697A0915717B091581759967D
S1132420FC93EE93589780818F5F808341E0C901CC
S1132430B8017DDBDF91CF911F910F910895CF9368
S1132440DF93FC01CB01BA01A181B281C09157177E
S1132450D0915817BB8BAA8BC0915717D09158179E
S113246016964D915C9117975D8B4C8B1696CD917A
S1132470DC9117974091571750915817425F5F4F5F
S11324805D834C834091571750915817425F5F4FBB
S113249017965C934E931697A0915717B0915817BF
S11324A05996FC93EE93589730813F5F30832223F3
S11324B019F06FEF7FEFCB01422F39DBDF91CF9122
S11324C00895CF93DF93DC011796ED91FC91189753
S11324D00084F185E02DA08DB18DC289D3898489D2
S11324E095899F838E83C489D589828993899D83A5
S11324F08C8311968D919C9112979F01225F3F4F7F
S11325008217930731F48489958912969C938E934C
S11325101197118E108E8C9181508C938091981606
S1132520811152C0A485B585C681D78180859185E6
S11325309F838E83C085D185868197819D838C837B
S113254011968D919C9112979F012E5F3F4F821798
S1132550930731F48085918512969C938E931197FD
S1132560158614868C9181508C93A28D8091A71628
S11325708A1710F4A093A7168BE08A9FD001112428
S1132580A751B94E11960D90BC91A02DB783A68387
S113259016964D915C911797518740871696CD9169
S11325A0DC9117973D832C8317963C932E931697B3
S11325B0A28D8A9FD0011124A751B94EB587A48753
S11325C08C918F5F8C931CC044EC56E1DA01119618
S11325D0CD91DC911297D38BC28B8E819F81958B89
S11325E0848B8E819F81DC0115963C932E931497E6
S11325F03F832E83518F408FDA018C918F5F8C93B0
S1132600928DE0915717F0915817828D891720F415
S113261081E08093A11601C080E0DF91CF910895FD
S1132620CF93DF93DC0170684D935D936D937C933E
S113263013971896ED91FC9119971A964D915C9108
S11326401B9714968D919C91159716962D913C91FC
S11326501797EC013F832E8316968D919C911797C3
S113266014962D913C911597EC013D832C83EA013E
S113267089819A81A817B90731F416968D919C9196
S113268017979A8389831B961C921E921A97DA01D4
S11326908C9181508C93A485B585C681D781808522
S11326A091859F838E83C085D185868197819D8303
S11326B08C8311968D919C9112979F012E5F3F4FB1
S11326C08217930731F48085918512969C938E939B
S11326D01197158614868C9181508C93A28D8091CC
S11326E0A7168A1710F4A093A7168BE08A9FD0012F
S11326F01124A751B94E11960D90BC91A02DB7830A
S1132700A68316964D915C9117975187408716962C
S1132710CD91DC9117973D832C8317963C932E9390
S11327201697A28D8A9FD0011124A751B94EB5875F
S1132730A4878C918F5F8C93928DE0915717F091C1
S11327405817828D891718F481E08093A116DF91C0
S1132750CF9108950FB6F8940F922091A016FC0122
S113276020834091A8165091A9166091AA167091E1
S1132770AB1641835283638374830F900FBE089515
S11327802091A016FC0120834091A8165091A9160F
S11327906091AA167091AB1641835283638374834C
S11327A008958F929F92AF92BF92CF92DF92EF9251
S11327B0FF920F931F93CF93DF93FB010FB6F8940F
S11327C00F92C090A816D090A916E090AA16F09087
S11327D0AB16DC0111960D911D912D913C9114972E
S11327E046015701801A910AA20AB30A4081518115
S11327F0628173814F3FBFEF5B076B077B0739F142
S1132800EC01B881A091A016BA1759F0C016D106F0
S1132810E206F30630F0108211821282138281E004
S113282017C084169506A606B70658F44819590920
S11328306A097B094083518362837383A1DF80E04B
S113284007C0108211821282138281E001C080E0ED
S11328500F900FBEDF91CF911F910F91FF90EF90DA
S1132860DF90CF90BF90AF909F908F90089581E0BC
S11328708093A11608958091571790915817089541
S11328808091A616882331F080919816811104C096
S113289082E0089581E0089580E008950F931F93E6
S11328A0CF93DF93FC01892B09F477C0828DA0912B
S11328B05717B09158175A969C91891708F063C01E
S11328C04685578560897189772394F0A0915717BD
S11328D0B09158175A969C914AE050E060E070E03D
S11328E0491B51096109710946875787608B718BB0
S11328F0248535854BE0849FC00111248751994E6E
S113290028173907B9F5EF018F010E5F1F4FC80172
S11329100E941504E0915717F0915817E28DEA8F41
S11329208091A7168E1710F4E093A7168BE08E9F64
S1132930F0011124E751F94E0180F281E02DFF836B
S1132940EE832681378139872887A681B78115963A
S11329501C930E93149717830683EA8D8E9FF001C0
S11329601124E751F94EFD87EC8780818F5F8083C6
S113297081E016C0A0915717B09158175A968C91C0
S1132980828F81E00DC095A5E0915717F0915817FB
S1132990828D981720F080E003C080E001C081E0C0
S11329A0DF91CF911F910F9108950F931F93CF93B0
S11329B0DF93FC01892B09F449C086A5815086A7C1
S11329C0228D95A5291709F443C0811143C0EF0155
S11329D08F010E5F1F4FC8010E941504EDA5EA8FF9
S11329E08AE090E0A0E0B0E08E1B9109A109B10952
S11329F08E879F87A88BB98B8091A7168E1710F4AA
S1132A00E093A7168BE08E9FF0011124E751F94E55
S1132A100180F281E02DFF83EE832681378139879F
S1132A202887A681B78115961C930E931497178354
S1132A300683EA8D8E9FF0011124E751F94EFD873C
S1132A40EC8780818F5F808381E005C080E003C0D4
S1132A5080E001C080E0DF91CF911F910F91089534
S1132A600F931F93CF93DF93FC01892B09F45AC072
S1132A7085A5861708F4862F928D891709F452C00C
S1132A8026A5213009F04EC0828F4685578560897E
S1132A907189772364F04AE050E060E070E0481BFD
S1132AA051096109710946875787608B718B2485A9
S1132AB035854BE0949FC00111248751994E281706
S1132AC0390781F5EF018F010E5F1F4FC8010E9486
S1132AD01504EA8D8091A7168E1710F4E093A716BB
S1132AE08BE08E9FF0011124E751F94E0180F281B1
S1132AF0E02DFF83EE832681378139872887A681DD
S1132B00B78115961C930E93149717830683EA8D49
S1132B108E9FF0011124E751F94EFD87EC878081E7
S1132B208F5F8083DF91CF911F910F910895CF9292
S1132B30DF92EF92FF92E0915717F0915817668554
S1132B40778580899189E0915717F0915817A09162
S1132B505717B09158175A962C910F2EFAE0CF2E92
S1132B60D12CE12CF12CF02DC21AD108E108F10886
S1132B70C686D786E08AF18AFF90EF90DF90CF90E7
S1132B8008958091571790915817892B39F0E09147
S1132B905717F091581786A58F5F86A7809157170E
S1132BA09091581708954F925F926F927F92AF92CF
S1132BB0BF92CF92DF92EF92FF920F931F93CF9326
S1132BC0DF93280139010FB6F8940F92E09157175B
S1132BD0F0915817C82FD0E0EC0FFD1F83A9823065
S1132BE079F1E0915717F0915817CE01880F991F8A
S1132BF0880F991FE80FF91F87A590A9A1A9B2A969
S1132C004095509560957095482359236A237B23FA
S1132C1047A750AB61AB72ABE0915717F0915817CF
S1132C20EC0FFD1F81E083ABA114B104C104D104F6
S1132C3039F041E0C601B5010E94970D0E9491044C
S1132C400F900FBE0FB6F8940F92E114F104A1F0A7
S1132C50E0915717F0915817CE01880F991F880FEC
S1132C60991FE80FF91F87A590A9A1A9B2A9F70197
S1132C7080839183A283B383E0915717F09158170F
S1132C80EC0FFD1F83A98230E9F4E0915717F0910E
S1132C905817CE01880F991F880F991FE80FF91F45
S1132CA087A590A9A1A9B2A9409450946094709466
S1132CB0482259226A227B2247A650AA61AA72AAF4
S1132CC081E001C080E02091571730915817C20F5E
S1132CD0D31F1BAA0F900FBEDF91CF911F910F91AD
S1132CE0FF90EF90DF90CF90BF90AF907F906F9068
S1132CF05F904F9008958F929F92AF92BF92EF9200
S1132D00FF920F93CF93DF93DC010FB6F8940F92E9
S1132D10E114F10489F0E62FF0E0EE0FFF1FEE0F4F
S1132D20FF1FE80FF91F87A490A8A1A8B2A8F70174
S1132D3080829182A282B38270E0FD01E60FF71FC8
S1132D4083A992E093AB023001F118F4013031F021
S1132D504DC0033079F10430D1F148C0660F771FBC
S1132D60660F771FFD01E60FF71F87A490A8A1A89F
S1132D70B2A8BA01A901482959296A297B2947A778
S1132D8050AB61AB72AB01E034C0660F771F660FC6
S1132D90771FFD01E60FF71F47A550A961A972A986
S1132DA04F5F5F4F6F4F7F4F47A750AB61AB72AB25
S1132DB001E01FC0660F771F660F771FFD01E60F46
S1132DC0F71F27A730AB41AB52AB01E012C08230F2
S1132DD079F0660F771F660F771FFD01E60FF71F67
S1132DE027A730AB41AB52AB01E003C001E001C007
S1132DF000E0813009F069C01C96ED91FC911D97AB
S1132E001696CD91DC91179718968D919C911997F0
S1132E109F838E831896CD91DC91199716968D9188
S1132E209C9117979D838C83818192819D012E5F54
S1132E303F4F8217930731F418968D919C911997FF
S1132E40928381831D961C921E921C9780818150CF
S1132E5080835A96EC915A978091A7168E1710F496
S1132E60E093A7168BE08E9FF0011124E751F94EF1
S1132E700180F281E02D1796FC93EE93169746811C
S1132E80578119965C934E931897C681D7813D83D9
S1132E902C83378326835A96EC915A978E9FF001A0
S1132EA01124E751F94E1D96FC93EE931C978081F3
S1132EB08F5F80835A969C91E0915717F091581731
S1132EC0828D891710F40E9491040F900FBE802FF9
S1132ED0DF91CF910F91FF90EF90BF90AF909F90B3
S1132EE08F9008958F929F92AF92BF92CF92DF926C
S1132EF0EF92FF920F93CF93DF93DC01E114F1047F
S1132F0089F0E62FF0E0EE0FFF1FEE0FFF1FE80F32
S1132F10F91F87A490A8A1A8B2A8F7018082918282
S1132F20A282B38270E0FD01E60FF71F93A982E04D
S1132F3083AB023001F118F4013031F04DC003309D
S1132F4079F10430D1F148C0660F771F660F771FFF
S1132F50FD01E60FF71F87A490A8A1A8B2A8BA01A3
S1132F60A901482959296A297B2947A750AB61AB94
S1132F7072AB81E034C0660F771F660F771FFD01C7
S1132F80E60FF71F47A550A961A972A94F5F5F4FCC
S1132F906F4F7F4F47A750AB61AB72AB81E01FC04F
S1132FA0660F771F660F771FFD01E60FF71F27A730
S1132FB030AB41AB52AB81E012C0923079F0660F76
S1132FC0771F660F771FFD01E60FF71F27A730ABAA
S1132FD041AB52AB81E003C081E001C080E091309D
S1132FE009F096C09091981691115FC01C96ED91CE
S1132FF0FC911D971696CD91DC91179718962D91FB
S11330003C9119973F832E831896CD91DC911997A3
S113301016962D913C9117973D832C8341815281C3
S11330209D012E5F3F4F4217530731F418964D917F
S11330305C911997528341831D961C921E921C9792
S11330409081915090835A96EC915A979091A7163B
S11330509E1710F4E093A7169BE09E9FF0011124A5
S1133060E751F94E0180F281E02D1796FC93EE931F
S113307016974681578119965C934E931897C6818B
S1133080D7813D832C83378326835A96EC915A97B4
S11330909E9FF0011124E751F94E1D96FC93EE9387
S11330A01C9790819F5F908321C064EC76E1FB01C3
S11330B0C181D2815396DC93CE9352972E813F8166
S11330C055963C932E9354974E815F819D01225FC8
S11330D03F4FFA01358324833F832E8359967C9393
S11330E06E935897FB0190819F5F90835A962C9121
S11330F0E0915717F0915817928D921748F4C11424
S1133100D10419F091E0F601908391E09093A11617
S1133110DF91CF910F91FF90EF90DF90CF90BF9010
S1133120AF909F908F900895009721F48091571746
S1133130909158170FB6F8940F9270E0FC01E60FC7
S1133140F71F23A9223031F4FC01E60FF71F13AA5D
S113315081E001C080E00F900FBE0895DC01E09192
S11331606317F0916417808191E0811190E09C9342
S1133170911108C00780F085E02D60817181828102
S11331809381089560E070E0CB010895CF92DF92BF
S1133190EF92FF920F931F93FC0142835383648346
S11331A07583938782870417150726073707C0F0AE
S11331B00C191D092E093F0986859785A089B189B7
S11331C0081719072A073B0700F5BF016E5F7F4FF9
S11331D080916117909162170E94D80380E018C013
S11331E00C151D052E053F0528F44C155D056E05CF
S11331F07F0568F4BF016E5F7F4F809163179091E4
S113320064170E94D80380E003C081E001C081E01C
S11332101F910F91FF90EF90DF90CF9008950FB61C
S1133220F8940F9280915F1790916017892BE9F4BD
S113323080E797E10E94C30385E697E10E94C303F8
S113324080E797E1909364178093631785E697E18D
S1133250909362178093611740E067E08AE00E94D0
S113326086069093601780935F170F900FBE0895A2
S1133270EF92FF920F93D3DF80915F1790916017C5
S1133280892B91F00F2EFDE5EF2EF7E1FF2EF02DA7
S113329003E020E030E040EC50E064E772E087EDCA
S11332A090E00E94390E01C080E00F91FF90EF90F2
S11332B008958F929F92AF92BF92CF92DF92EF9236
S11332C0FF920F931F93CF93DF93CDB7DEB727976A
S11332D00FB6F894DEBF0FBECDBFE0915F17F0913B
S11332E06017309781F169832A833B834C835D8324
S11332F09F838E836630F4F4C3DA823069F400E08D
S1133300A7019601BE016F5F7F4F80915F17909177
S113331060170E94A90618C000E020E030E0A9016F
S1133320BE016F5F7F4F80915F17909160170E947D
S1133330A9060AC020E0A801BE016F5F7F4FCF013C
S11333400E94590701C080E027960FB6F894DEBFAB
S11333500FBECDBFDF91CF911F910F91FF90EF90E2
S1133360DF90CF90BF90AF909F908F9008958F92F1
S11333709F92AF92BF92CF92DF92EF92FF920F9300
S11333801F93CF93DF933BC00780F085E02D8080AF
S11333909180A280B380C085D1858E010E5F1F4FBE
S11333A0C8010E941504EC89FD89CE0119958E8906
S11333B082FF25C08E859F85A889B989880D991DAE
S11333C0AA1DBB1D88169906AA06BB0670F48A833B
S11333D09B83AC83BD83DB87CA87B8018091631765
S11333E0909164170E94D8030AC0C12CD12C760195
S11333F000E010E0A501940160E0CE015ADFE09105
S11334006317F091641780818111BECF8091611799
S1133410909162179093641780936317F0936217E7
S1133420E0936117DF91CF911F910F91FF90EF907F
S1133430DF90CF90BF90AF909F908F900895CF92E0
S1133440DF92EF92FF92CF93DF93EC010E94C30EC1
S11334506B017C018091591790915A17A0915B17C9
S1133460B0915C17C816D906EA06FB0620F47FDF84
S113347081E0888301C01882C0925917D0925A17EC
S1133480E0925B17F0925C17C701B601DF91CF9110
S1133490FF90EF90DF90CF9008954F925F926F92DC
S11334A07F928F929F92AF92BF92CF92DF92EF92D0
S11334B0FF920F931F93CF93DF934B015C0129017C
S11334C03A01E0916317F09164170780F085E02DCD
S11334D0C085D185CE0102960E9415048E8982FF93
S11334E01BC04E855F8568897989480D591D6A1D01
S11334F07B1D7501640193018201CE0147DE88239F
S113350069F0C12CD12C760100E010E0A5019401F2
S113351060E0CE01CEDE02C08E7F8E8BEC89FD8909
S1133520CE011995DF91CF911F910F91FF90EF90EC
S1133530DF90CF90BF90AF909F908F907F906F90CF
S11335405F904F9008958F929F92AF92BF92CF92C7
S1133550DF92EF92FF921F93CF93DF931F92CDB729
S1133560DEB76B017C01142F0E94BD0ECE010196C3
S113357066DF4B015C01898181112DC011110DC0E1
S11335808C149D04AE04BF0440F00E94FD0FA501FD
S11335909401C701B60181DF20C0112341F0E091FD
S11335A06117F0916217808111E0811110E0B70179
S11335B0A601481959096A097B09212F80915F17CF
S11335C0909160170E94D4080E94FD0F811105C0DC
S11335D00E94910402C00E94FD0F0F90DF91CF91D1
S11335E01F91FF90EF90DF90CF90BF90AF909F908E
S11335F08F900895AF92BF92CF92DF92EF92FF9295
S11336000F931F93CF93DF93CDB7DEB728970FB6F1
S1133610F894DEBF0FBECDBF82C0898188230CF42D
S11336207EC0AE80BF80D5011C968D919C911D9764
S1133630892B21F0C50102960E941504CE0108963B
S1133640FEDE8B019C01E9810E2E000CFF0BEA309B
S1133650F10508F064C08827EE58FF4F8F4F0C9493
S1133660F02EF50186898160868BCA80DB80EC8030
S1133670FD8046855785608971894C0D5D1D6E1DE1
S11336807F1DC50183DD882309F449C0D501549603
S1133690ED91FC915597C5011995F501868982FF35
S11336A03EC04A815B816C817D8186859785A08936
S11336B0B1899A01AB01280F391F4A1F5B1FC12C26
S11336C0D12C760100E010E060E0C501F2DD27C0F6
S11336D0D50156968C9156978E7F56968C931FC023
S11336E0F50186898160868B4A815B816C817D814D
S11336F046875787608B718B400F511F621F731F62
S113370068017901C50142DD0AC0F501868981FDA0
S113371004C0C5010E94860302C08E7F868B20E010
S113372030E0A901BE016F5F7F4F80915F179091D8
S113373060170E949407811170CF28960FB6F894F1
S1133740DEBF0FBECDBFDF91CF911F910F91FF90D0
S1133750EF90DF90CF90BF90AF900895089584B11B
S1133760806884B985B1806885B9089583B180681B
S113377083B90895F4DF2FEF80E792E02150804071
S11337809040E1F700C00000F1DFF5CFE8DF2FEF54
S113379087EA91E6215080409040E1F700C00000A4
S11337A0E5DFF5CFCF93DF93CDB7DEB766970FB6DE
S11337B0F894DEBF0FBECDBF43E050E060E070E0A0
S11337C08091B4189091B5180E94DC01CC24CA945D
S11337D0DC2C760101E021E043E050E060E070E0A1
S11337E08091CE189091CF180E943C01DC01CB014E
S11337F083709927AA27BB270397A105B10531F543
S1133800A8D0CBD2E3D3BFD2ECD3C2D262E0CE01F4
S11338100196C8D286E1FE013196A8EBB8E1019089
S11338200D928A95E1F70FEF1FEF980146E150E002
S113383068EB78E18091D0189091D1180E94950A94
S113384064E477E080E090E00E943E1163E070E081
S113385080E090E00E943E11AFCFEF92FF920F9371
S1133860E12CF12C082F20E030E040EC50E06CE734
S113387072E082ED9BE10E94390E0F91FF90EF9070
S113388008958093D3189093D4189F938F9384E8CA
S113389092E09F938F930E947C3042E050E060E07E
S11338A070E08091CE189091CF180E94DC010F90A7
S11338B00F900F900F90089583E00E94232681E4D7
S11338C09CE10C94482608950E944D268093D218BA
S11338D0882341F08DE892E09F938F930E947C307F
S11338E00F900F9085EA92E09F938F930E947C3013
S11338F00F900F900895CC24CA94DC2C760101E03B
S113390021E042E050E060E070E08091B4189091D2
S1133910B5180E943C0161FDD7DF63E070E080E0F0
S113392090E00E943E11E7CFEF92FF920F93082F91
S1133930C3DFE12CF12C20E030E040EC50E064EBFC
S113394072E08BE79CE10E94390E0F91FF90EF909B
S113395008958091D3189091D41808950F9343E05B
S113396060E081E00E9486069093B7188093B618B1
S113397000E020E030E0A90160E070E00E94A906C8
S11339800F91089581E00E944D079093B31880939E
S1133990B21808950E9429019093CF188093CE18ED
S11339A00E9429019093B5188093B418089541E0BA
S11339B060E070E08CE290E00E94330A9093D118AA
S11339C08093D01841E060E070E08CE290E00E94C7
S11339D0330A9093B1188093B01808950F931F93EE
S11339E0CF93DF930FEF1FEF980146E150E065EDB1
S11339F078E18091B0189091B1180E949E0B892BA8
S1133A00A9F1C5EDD8E1998188811F929F931F92F6
S1133A108F938FEC92E09F938F930E947C308981E7
S1133A200F900F900F900F900F900F908230C1F471
S1133A30FE01CA81D0E0DC2FCC278381C80FD11DC1
S1133A40DF93CF9385E093E09F938F930E947C3024
S1133A508C2F9D2F51D10F900F900F900F9006C077
S1133A6062EA73E080E090E00E943E11DF91CF9122
S1133A701F910F910895B2DFFECFEF92FF920F9343
S1133A802091B0183091B118E12CF12C082F40ECA2
S1133A9050E06AE173E08BE39DE10E94390E0F91DF
S1133AA0FF90EF9008950F931F93CF93DF93CDB7BB
S1133AB0DEB764970FB6F894DEBF0FBECDBF81E0CA
S1133AC00E94262B67D5E3D79F938F9388E293E0D8
S1133AD09F938F930E947C30DBD6D9D79F938F938B
S1133AE08BE393E09F938F930E947C308E010F5F52
S1133AF01F4FC80161D5CBD71F930F939F938F930B
S1133B0084E593E09F938F930E947C30C80170D525
S1133B10BED79F938F931F930F9388E693E09F9351
S1133B208F930E947C30A8016DE773E08EE993E0E7
S1133B308DD7ADD79F938F931F930F938DE793E00A
S1133B409F938F938EE993E09F938F938FEA93E0F3
S1133B509F938F930E947C307ED599D79F938F93A8
S1133B6085EE93E09F938F930E947C300FB6F89478
S1133B70DEBF0FBECDBF81E068D689D79F938F93F8
S1133B8084EF93E09F938F930E947C3084EF91E0C5
S1133B9067D67DD79F938F9381E08F9384EF8F9324
S1133BA085E194E09F938F930E947C300FB6F89444
S1133BB0DEBF0FBECDBF14E680E053D5082F67D714
S1133BC09F938F931F921F9385E394E09F938F930A
S1133BD00E947C300F900F900F900F900F900F90D9
S1133BE0083059F080E00E948A2B66E371E080E09F
S1133BF090E00E943E111150F9F6083021F481E062
S1133C000E946C2B09C081E00E947B2B80E00E9403
S1133C10492B0E949104FDCF64960FB6F894DEBF41
S1133C200FBECDBFDF91CF911F910F910895CF9318
S1133C30DF9300D01F92CDB7DEB781E09DD462E060
S1133C4070E080E090E00E943E1180E095D466E947
S1133C5070E080E090E00E943E1147D424DF0E948F
S1133C60C30E69837A838B839C830FEF1FEF9801C4
S1133C7046E150E068EB78E18091D0189091D1183A
S1133C800E949E0B8C014AEB50E060E070E0CE0194
S1133C9001960E94D910012BA1F083E00E949C2B75
S1133CA068EB78E180E006D5F2D69F938F9385E5A3
S1133CB094E09F938F930E947C300F900F900F900D
S1133CC00F9064E670E080E090E00E943E11CDCF5A
S1133CD0EF92FF920F93E12CF12C082F20E030E0BB
S1133CE040EC50E06EE774E087E19EE10E94390EFB
S1133CF00F91FF90EF9008950F93CF93DF93EC0112
S1133D008BE894E09F938F930E947C3081E090E055
S1133D109093EE188093ED184CE050E060E070E072
S1133D208091B2189091B3180E9423080F900F90BD
S1133D308130C1F484E994E09F938F930E947C3096
S1133D40D093EE18C093ED1800E020E030E0A90114
S1133D5060E070E08091B2189091B3180E94A906B7
S1133D600F900F908FE994E09F938F930E947C3083
S1133D700F900F90DF91CF910F9108958091ED18DE
S1133D809091EE1808959093F0188093EF18089589
S1133D9090930B1980930A190895909309198093AD
S1133DA0081908951F93CF93DF93EC01162F809188
S1133DB0F0188F938091EF188F9380EB94E09F938A
S1133DC08F930E947C3080910B198F9380910A19F4
S1133DD08F9384EC94E09F938F930E947C30809126
S1133DE009198F93809108198F9385ED94E09F931F
S1133DF08F930E947C30E1EFF8E1108386E08183A9
S1133E0080910A1990910B19928383838091EF1802
S1133E109091F018948385838091081990910919E1
S1133E209683878386E1DE0101900D928A95E1F7FE
S1133E308DB79EB70C960FB6F8949EBF0FBE8DBF7C
S1133E40CE01DF91CF911F91089564E771E080E086
S1133E5090E00E943E1192DFEC01DF93CF9381EE5C
S1133E6094E09F938F930E947C3021970F900F9042
S1133E700F900F90A79748F78FEE94E09F938F933E
S1133E800E947C306CE980E037D70F900F90DDCF33
S1133E90EF92FF920F9348D7E12CF12C03E020E03E
S1133EA030E040EC50E065EF74E085E29FE10E9471
S1133EB0390E0F91FF90EF9008957ED1811109C0C2
S1133EC08EEF94E09F938F930E947C300F900F901D
S1133ED0089585E395E09F938F930E947C300F9023
S1133EE00F90089581D1882341F08DE495E09F934C
S1133EF08F930E947C300F900F9066E070E080E01A
S1133F0090E00E943E1185D1882341F081E895E03C
S1133F109F938F930E947C300F900F9061E070E02C
S1133F2080E090E00C943E110895CC24CA94DC2CDB
S1133F30760101E021E041E050E060E070E0809132
S1133F40B4189091B5180E943C01CCDFABD1BC01F0
S1133F50990F880B990B9FD060937D1770937E17F0
S1133F6080937F179093801779D190937C178093D7
S1133F707B178CEB95E09F938F930E947C3041E0FC
S1133F8050E060E070E08091CE189091CF180E94CC
S1133F90DC0160E070E0CB010E943E110F900F90B5
S1133FA0C4CFEF92FF920F93082F87DFE12CF12CFF
S1133FB020E030E040EC50E064EE75E085E99FE1FC
S1133FC00E94390E0F91FF90EF90089560917D1734
S1133FD070917E1780917F17909180172ED0CB011E
S1133FE0089580917B1790917C170895B7DCD2DCFB
S1133FF0DEDCC8DC6091B0187091B11881E07CC23D
S1134000089581E0CEDF81E08FDC83E026DC84E06C
S11340105FDE85E032DD82E090E03ACF089580E013
S11340200E94652AE3DFEDCF0895F9DF8EEF95E076
S11340300E948F300E94850EFFCF70D088F09F576A
S113404090F0B92F9927B751A0F0D1F0660F771FE0
S1134050881F991F1AF0BA95C9F712C0B13081F0C0
S113406077D0B1E0089574C0672F782F8827B85FA0
S113407039F0B93FCCF3869577956795B395D9F721
S11340803EF490958095709561957F4F8F4F9F4F2B
S11340900895E89409C097FB3EF490958095709537
S11340A061957F4F8F4F9F4F9923A9F0F92F96E980
S11340B0BB279395F695879577956795B795F111F5
S11340C0F8CFFAF4BB0F11F460FF1BC06F5F7F4F92
S11340D08F4F9F4F16C0882311F096E911C07723A4
S11340E021F09EE8872F762F05C0662371F096E8AD
S11340F0862F70E060E02AF09A95660F771F881F7C
S1134100DAF7880F9695879597F9089557FD905893
S1134110440F551F59F05F3F71F04795880F97FB87
S1134120991F61F09F3F79F0879508951216130641
S11341301406551FF2CF4695F1DF08C01616170670
S11341401806991FF1CF86957105610508940895A5
S1134150E894BB2766277727CB0197F90895653044
S1134160F1F4FA0180818F7390E0982F88272181E0
S1134170822B90930A02809309028281F0E48F9F3C
S1134180C0011124FA01238126952695822B909350
S113419008028093070281E08093811708956430B8
S11341A051F080E090E4909308028093070290938A
S11341B00A028093090208950F931F930FEA10E2F5
S11341C020E034E244EF50E060E087E20E94BE2B3E
S11341D0909383178093821721E0892B09F020E0C4
S11341E0822F1F910F9108958091821790918317C8
S11341F0009759F040E060E070E00E940F2C84309A
S113420031F41092811780E0089582E0089583E0EC
S113421008958091821790918317009739F064E094
S11342200E945B2C853021F083E0089582E008959C
S113423080E008956091090270910A0280E090E0A4
S113424028DF20E030E048EC52E40E94682E20E0B1
S113425038EF4FE756E40C94CE2D0895EBDF20E0C1
S113426030E040E251E40E94682EE7DECB0108957D
S1134270609107027091080280E090E00ADF20E07C
S113428030E045E253E40E94682E20E038EF4FE727
S113429056E40E94CE2D20E030E040E252E40C943B
S11342A0672D0895E5DF20E030E040E251E40E940C
S11342B0682E0E94392ECB0108950F931F93CF933C
S11342C0DF931F921F92CDB7DEB78C0119822DC0E8
S11342D0E091BB17EC3250F481E08E0F8093BB1752
S11342E0F0E0E351F84E8A81808302C01092BB173C
S11342F08A818A30D1F44091BB1750E0FA01E5512C
S1134300F84E1082415051099E012F5F3F4F6DEED0
S113431077E18091BE179091BF170E945A0B898153
S113432081110E9491041092BB17BE016E5F7F4FF2
S1134330C80135D6882361F20F900F90DF91CF9199
S11343401F910F9108950F931F93CF93DF938C01C7
S1134350EB018091BE179091BF170E94650AB801C6
S113436084E897E10E945D30209779F0E4E8F7E172
S113437001900020E9F7319780E290E091838083F7
S1134380BE0184E897E10E945230E4E8F7E1DF01DE
S11343900D900020E9F711978DE09AE011969C9317
S11343A08E9312961C9201900020E9F73197E458FD
S11343B0F741AE2F84E897E1AC016A2F8091C017D2
S11343C09091C11797D5811111C008E215E020E042
S11343D030E04DE250E067E478E18091BE179091BF
S11343E0BF170E949E0B87E498E102C080E090E032
S11343F0DF91CF911F910F9108952F923F924F9289
S11344005F926F927F928F929F92AF92BF92CF9260
S1134410DF92EF92FF920F931F93CF93DF935C0190
S1134420FC0101900020E9F731976F01C81AD90AFD
S11344305C2C0F2EF9EA8F2EF8E09F2EF02DE12C44
S1134440F12C4C2C3701F40101811281E80109900F
S11344500020E9F72197C01BD10B3C2EF9E0CF16C1
S1134460D10458F0F4012080FEE02F1206C0B801F8
S1134470C5010E942D30892B09F5442D351408F40B
S11344804C2F50E0B801C5010E946430892B49F4D7
S1134490F301EE0FFF1FE60DF71DE755F74F2080E0
S11344A00DC08FEFE81AF80AE3E08E0E911CF1E1DB
S11344B0EF16F10439F66894222424F8822DDF9152
S11344C0CF911F910F91FF90EF90DF90CF90BF900D
S11344D0AF909F908F907F906F905F904F903F90A0
S11344E02F90089530DF89CF08958091BE17909161
S11344F0BF170C94650A08958F929F92AF92CF9242
S1134500EF920F931F93CF93C82F8B0141E060E08C
S113451070E088EC90E00E94330A9093BF17809378
S1134520BE171093BD170093BC170F2EFDE58F2EF9
S1134530F1E29F2EF02D6894AA24A6F86894CC2466
S1134540C6F8E12C00E023E040E051EE60E070E0CA
S11345508C2F06D49093C1178093C017E7E0F1E045
S1134560808180618083CF911F910F91EF90CF90D4
S1134570AF909F908F900895882331F0E8E0F1E0A8
S113458080818F7E80830895E8E0F1E080818061FE
S11345908083089560E070E08FE296E0D4DEE7E483
S11345A0F8E101900020E9F73197E754F84181E000
S11345B0759708F080E00895CF93DF93EC0160E0F5
S11345C070E080E496E0BFDEE7E4F8E101900020CB
S11345D0E9F7E855F84139F467E478E1CE010E943F
S11345E05D3080E002C0188281E0DF91CF910895B0
S11345F0FC0101900020E9F79F012151310928179E
S1134600390729F4BC018EE696E06CCF089589E061
S11346100895FC0101900020E9F79F01215131091F
S11346202817390729F4BC018DE796E05BCF08957C
S113463089E00895FC0101900020E9F79F012152CF
S113464031092817390729F4BC018CE896E04ACFD0
S1134650089589E0089560E070E08BEC96E042CF25
S113466008950F931F93E82FF0E0EE0FFF1FEB5513
S1134670F74F6081718184ED96E034DF811114C0BD
S113468008E215E020E030E04DE250E067E478E134
S11346908091BE179091BF170E949E0B882321F032
S11346A087E498E1AADE03C087E498E1A6DE1F91BF
S11346B00F9108950F931F93CF93DF931F92CDB75C
S11346C0DEB7DB0111969C911197953108F0B4C0C7
S11346D0992381F160E070E0272F30E0462F50E00D
S11346E0FD01E40FF51F928192959F709A3010F0AE
S11346F0995C01C0905DF901E852F84E90832F5FF8
S11347003F4FFD01E40FF51F92819F70492F50E048
S11347104A30510514F0995C01C0905DF901E852EA
S1134720F84E90837E5F6F5F11969C911197691785
S113473098F201C070E0E72FF0E0E852F84E1082E2
S11347404C91811103C08DED96E002C08FED96E08F
S113475028ED37E13F932F931F924F939F938F93AD
S113476083EE96E09F938F938AE198E19F938F93D2
S11347700E94BF3060E070E08AE198E1B3DE0FB6DA
S1134780F894DEBF0FBECDBF811159C008E215E019
S113479020E030E04DE250E067E478E18091BE171C
S11347A09091BF170E949E0B882309F447C087E4A9
S11347B098E123DE8E3009F042C087E0898380913E
S11347C0BC179091BD17892BA9F1BE016F5F7F4F74
S11347D087E498E168D18093C217E981F0E0E95B4E
S11347E0F74EDF010D900020E9F71197AE1BBF0BC8
S11347F0AA2391F0BB27CD0101979C0112F42F5FEE
S11348003F4F359527952093C317AF014F5F5F4FF7
S113481064E184EC97E173D101E010E020E030E042
S113482046E150E062EC77E18091BC179091BD17AE
S11348300E94950A8EE003C084E101C080E00F90DD
S1134840DF91CF911F910F910895813019F063EF9B
S113485076E002C06CEC77E087EF96E043CE0895F3
S11348609F938F9388E297E09F938F938AE198E1D7
S11348709F938F930E94BF3060E070E08AE198E1DB
S113488031DE0F900F900F900F900F900F900895BE
S11348902F923F924F925F926F927F928F929F924C
S11348A0AF92BF92CF92DF92EF92FF920F931F933A
S11348B0CF93DF93CDB7DEB7A0970FB6F894DEBFE2
S11348C00FBECDBF65E577E081E697E03CDD95DD81
S11348D08111A3C080E2E2E2F2E0DE0111960190D0
S11348E00D928A95E1F79E012F5F3F4F6901E12CFC
S11348F0F12C0F2EFDE6AF2EF7E0BF2EF02D0AE1CE
S113490018E10F2EF6E84F2EF7E05F2EF02D0F2E54
S1134910FDE98F2EF7E09F2EF02D0F2EF7EB6F2E73
S1134920F7E07F2EF02D3E2C2F2CFF92EF92BF92BA
S1134930AF921F930F930E94BF3060E070E0C801F4
S113494002DD5BDD0F900F900F900F900F900F9092
S1134950811163C032E03E15E8F4F60183818F9340
S113496082818F9381818F9380818F93FF92EF92C5
S11349705F924F921F930F930E94BF3060E070E0EC
S1134980C801E1DC3ADD0FB6F894DEBF0FBECDBF3F
S1134990811143C02F923F929F928F921F930F9346
S11349A00E94BF3060E070E0C801CDDC26DD0F90CE
S11349B00F900F900F900F900F9081112EC02F9297
S11349C03F927F926F921F930F930E94BF3060E0DB
S11349D070E0C801B8DC11DD0F900F900F900F90BC
S11349E00F900F90811119C03FEFE31AF30A84E08E
S11349F0C80ED11C98E0E916F10409F094CF60E0E8
S1134A0070E08FEC97E09FDCF8DC811106C060E079
S1134A1070E080EE97E097DCF0DCA0960FB6F89497
S1134A20DEBF0FBECDBFDF91CF911F910F91FF90DD
S1134A30EF90DF90CF90BF90AF909F908F907F903A
S1134A406F905F904F903F902F900895EF92FF9258
S1134A500F931F93CF93DF93EC018B017A0181E0D5
S1134A60F4DE81110DC0CE01D4DD811109C0C8016D
S1134A70E1DD811105C0C701BBDD811101C0EBDDA2
S1134A80DF91CF911F910F91FF90EF90089590E0E7
S1134A90FC01EE0FFF1F8E0F9F1FFC01E755F74F20
S1134AA0818192810895DC01009729F1FB01208125
S1134AB0FC0101900020E9F73197E81BF90B822FE4
S1134AC090E0E817F907C8F080E008C0880F382F95
S1134AD0330F330F830F8053890F2F5FFD01E20FD4
S1134AE0F11D908130ED390F3A3010F49111EECF71
S1134AF0FB012083089580E0089580E008950F93DA
S1134B001F93CF93DF93DC01EA012097E1F1FA01CF
S1134B1001900020E9F73197E41BF50B329710F56B
S1134B2032C08D01040F151F30E0AE01420F531F38
S1134B30FA019081913428F09753592F5295507F60
S1134B4003C0592F5295507F2C0F3D1FF9019181BD
S1134B50913410F0975301C09053950FF80190834E
S1134B608F5F01C080E0282F220F482F50E0FE0104
S1134B7001900020E9F73197EC1BFD0B4E175F07FE
S1134B8010F48613CECFDF91CF911F910F9108952A
S1134B9080917718860F8093771890917A189130C6
S1134BA079F028F09230A9F0933019F108956F3F0D
S1134BB009F048C01092771881E080937A1808951C
S1134BC0663809F03FC01092761882E080937A1814
S1134BD00895E091761881E08E0F80937618F0E0C6
S1134BE0EC58F74E6083823069F583E080937A183D
S1134BF008959091761821E0290F20937618963025
S1134C0009F581110EC0E4E7F8E1808190E0982F66
S1134C1088272181820F911D90937C1880937B18A3
S1134C2004C010927C1810927B1810927A18E091AC
S1134C307818F0917918309729F080917B18909129
S1134C407C18199508958F929F92AF92CF92EF920C
S1134C500F930F2EF8EC8F2EF5E29F2EF02D689413
S1134C60AA24A4F86894CC24C4F8E12C00E023E03E
S1134C7040E855E260E070E073D090937E18809332
S1134C807D180F91EF90CF90AF909F908F900895E3
S1134C9090937918809378180895CF93DF93CDB7C4
S1134CA0DEB729970FB6F894DEBF0FBECDBF89E0FB
S1134CB0E2E4F2E09E012F5F3F4FD90101900D9293
S1134CC08A95E1F710927C1810927B1880917D18D8
S1134CD090917E18009731F0422F532F69E00AD14A
S1134CE080E001C082E029960FB6F894DEBF0FBEC3
S1134CF0CDBFDF91CF91089565360CF064E66C3931
S1134D000CF46CE996EF6902B00111246854744FF5
S1134D10811105C07093290160932801089570934F
S1134D202B0160932A010895EAE0F1E08081886113
S1134D3080838FE39CE9909327018093260160E0B0
S1134D4080E0DADF60E081E0D7DFE0E2F1E080815B
S1134D50826A8083E1E2F1E080818A618083089540
S1134D602F923F924F925F926F927F928F929F9277
S1134D70AF92CF92EF92FF920F931F93CF93DF9353
S1134D80CDB7DEB7F82E2A013B0188E090E00E94FF
S1134D90F82E8C018F2D90E0FC01EE0FFF1FE158DF
S1134DA0F74E118300830115110509F466C0880FBD
S1134DB0991FFC01E55FFD4F80819181D8018D939E
S1134DC09C938C2D90E0880F991F880F991F0E9447
S1134DD0F82E1C0186E090E00E94F82E7C014C2DF8
S1134DE0B10159D6F801F582E4828A2D90E0880F4A
S1134DF0991F880F991FFCD71C0186E090E0F8D713
S1134E007C014A2DB10147D6D8011396FC92EE924B
S1134E10129717969C928E921697FFB6F894ED917E
S1134E20FC91119736978081826080838D909C904D
S1134E30C301B2012ED920E030E040E051E448D76C
S1134E409B01AC0160E074E284E79BE4A7D620E018
S1134E5030E040E85FE33BD6F0D8F401329760835A
S1134E60D801ED91FC911197359788E98083ED91F4
S1134E70FC91349786E08083FFBEC801DF91CF9117
S1134E801F910F91FF90EF90CF90AF909F908F90D4
S1134E907F906F905F904F903F902F900895CF93A5
S1134EA0DF93DC01892B01F11296ED91FC911397AC
S1134EB0938182812581981B922384819817B1F074
S1134EC0838126952823C081D181C20FD11D688397
S1134ED08F5F958189238383ED91FC913597808140
S1134EE08062808380E003C081E001C082E0DF91C2
S1134EF0CF910895EF92FF920F931F93CF93DF9377
S1134F007C01009709F441C0DC011296ED91FC91FB
S1134F10139793818281981B858198238481891BAF
S1134F208617A8F1662341F1842F952FDC01615087
S1134F30462F50E04F5F5F4F480F591FE701EA814A
S1134F40FB81938182812581981B92238481981708
S1134F5079F08C91938126952923608171818B014D
S1134F60020F111DE80188839F5F85819823938335
S1134F701196A417B50711F7D701ED91FC91359758
S1134F8080818062808380E003C081E001C082E090
S1134F90DF91CF911F910F91FF90EF9008950097AB
S1134FA0D1F0DC011496ED91FC91159793818281E7
S1134FB0981799F09281858186958923A081B18182
S1134FC0A80FB11D8C91DB018C939F5F8581982381
S1134FD0928380E0089581E0089583E008951F920C
S1134FE00F920FB60F9211240BB60F922F933F938B
S1134FF04F935F936F937F938F939F93AF93BF93DD
S1135000CF93DF93EF93FF93A0917F18B091801813
S1135010109711F16091C6001496ED91FC911597CB
S1135020938182812581981B92238481981761F052
S1135030838126952823C081D181C20FD11D688325
S11350408F5F9581892383831696ED91FC91179741
S1135050309711F0CD011995FF91EF91DF91CF9128
S1135060BF91AF919F918F917F916F915F914F917C
S11350703F912F910F900BBE0F900FBE0F901F907A
S113508018951F920F920FB60F9211240BB60F9220
S11350902F938F939F93AF93BF93EF93FF93E091DD
S11350A07F18F09180183097B9F00280F381E02DD9
S11350B0938182819817B1F092818581282F26955A
S11350C02923A081B181A20FB11D2C919F5F892357
S11350D082832093C6000BC0E1ECF0E080818F7DD9
S11350E0808305C0E1ECF0E080818F7D8083FF91B7
S11350F0EF91BF91AF919F918F912F910F900BBE24
S11351000F900FBE0F901F9018951F920F920FB61D
S11351100F9211240BB60F922F933F934F935F93EB
S11351206F937F938F939F93AF93BF93CF93DF93AB
S1135130EF93FF93A0918118B0918218109711F109
S11351406091CE001496ED91FC9115979381828124
S11351502581981B92238481981761F08381269579
S11351602823C081D181C20FD11D68838F5F9581AF
S1135170892383831696ED91FC911797309711F04C
S1135180CD011995FF91EF91DF91CF91BF91AF912F
S11351909F918F917F916F915F914F913F912F914B
S11351A00F900BBE0F900FBE0F901F9018951F927B
S11351B00F920FB60F9211240BB60F922F938F9369
S11351C09F93AF93BF93EF93FF93E0918118F09176
S11351D082183097B9F00280F381E02D93818281A7
S11351E09817B1F092818581282F26952923A081D3
S11351F0B181A20FB11D2C919F5F892382832093DB
S1135200CE000BC0E9ECF0E080818F7D808305C087
S1135210E9ECF0E080818F7D8083FF91EF91BF9175
S1135220AF919F918F912F910F900BBE0F900FBE56
S11352300F901F9018951F920F920FB60F92112482
S11352400BB60F922F933F934F935F936F937F937C
S11352508F939F93AF93BF93CF93DF93EF93FF937A
S1135260A0918318B0918418109711F16091D60021
S11352701496ED91FC911597938182812581981B59
S113528092238481981761F0838126952823C08115
S1135290D181C20FD11D68838F5F95818923838358
S11352A01696ED91FC911797309711F0CD01199551
S11352B0FF91EF91DF91CF91BF91AF919F918F912A
S11352C07F916F915F914F913F912F910F900BBE02
S11352D00F900FBE0F901F9018951F920F920FB64C
S11352E00F9211240BB60F922F938F939F93AF932A
S11352F0BF93EF93FF93E0918318F0918418309754
S1135300B9F00280F381E02D938182819817B1F086
S113531092818581282F26952923A081B181A20F0E
S1135320B11D2C919F5F892382832093D6000BC0EB
S1135330E1EDF0E080818F7D808305C0E1EDF0E058
S113534080818F7D8083FF91EF91BF91AF919F9179
S11353508F912F910F900BBE0F900FBE0F901F9047
S113536018951F920F920FB60F9211240BB60F923D
S11353702F933F934F935F936F937F938F939F9359
S1135380AF93BF93CF93DF93EF93FF93A0918518CF
S1135390B0918618109711F1609136011496ED9131
S11353A0FC911597938182812581981B9223848196
S11353B0981761F0838126952823C081D181C20F7B
S11353C0D11D68838F5F9581892383831696ED9120
S11353D0FC911797309711F0CD011995FF91EF913A
S11353E0DF91CF91BF91AF919F918F917F916F91F9
S11353F05F914F913F912F910F900BBE0F900FBE75
S11354000F901F9018951F920F920FB60F921124B0
S11354100BB60F922F938F939F93AF93BF93EF93FA
S1135420FF93E0918518F09186183097B9F00280C7
S1135430F381E02D938182819817B1F09281858167
S1135440282F26952923A081B181A20FB11D2C916B
S11354509F5F89238283209336010BC0E1E3F1E04F
S113546080818F7D808305C0E1E3F1E080818F7DC1
S11354708083FF91EF91BF91AF919F918F912F9175
S11354800F900BBE0F900FBE0F901F901895CF93E7
S1135490DF931F92CDB7DEB7BE016F5F7F4F809160
S11354A08718909188187BDD8111F6CF898190E06F
S11354B00F90DF91CF910895682F80918718909174
S11354C08818EDDC80E090E008958F929F92AF926F
S11354D0CF92EF920F93812C912C6894AA24A7F871
S11354E06894CC24C7F8E12C00E023E040E051EEBE
S11354F060E070E035DC9093881880938718E1E1D0
S1135500F9E183E192E091838083938382830F9115
S1135510EF90CF90AF909F908F90089590E0FC0112
S1135520EE0FFF1FE80FF91FEE0FFF1FE757F74EAF
S1135530238121111FC09C01220F331FF901E80FA1
S1135540F91FEE0FFF1FE757F74EA081B1814C9171
S1135550F901E80FF91FEE0FFF1FE757F74E81E03F
S113556090E0028002C0880F991F0A94E2F7842B0E
S11355708C930895FC01EE0FFF1FDF01A80FB91FE4
S1135580AA0FBB1FA757B74E0D90BC91A02D2C910D
S1135590E80FF91FEE0FFF1FE757F74E81E090E089
S11355A0028002C0880F991F0A94E2F78095822333
S11355B08C93089590E0FC01EE0FFF1FE80FF91F94
S11355C0EE0FFF1FE757F74E2381211120C09C01E6
S11355D0220F331FF901E80FF91FEE0FFF1FE757E2
S11355E0F74EA081B1814C91F901E80FF91FEE0F3C
S11355F0FF1FE757F74E81E090E0028002C0880F5A
S1135600991F0A94E2F7809584238C930895FC01F2
S1135610EE0FFF1FDF01A80FB91FAA0FBB1FA7576B
S1135620B74E0D90BC91A02D2C91E80FF91FEE0FF1
S1135630FF1FE757F74E81E090E0028002C0880F19
S1135640991F0A94E2F7822B8C930895CF93DF93EA
S113565090E0FC01EE0FFF1FDF01A80FB91FAA0F96
S1135660BB1FA757B74ECD91DC911197488121E01C
S113567030E012960C90129702C0220F331F0A9446
S1135680E2F724272883FD0181E08483DF91CF9111
S11356900895CF93DF9390E0FC01EE0FFF1FDF012D
S11356A0A80FB91FAA0FBB1FA757B74ECD91DC9106
S11356B01197488121E030E012960C90129702C0B5
S11356C0220F331F0A94E2F724272883FD0182E086
S11356D08483DF91CF910895282F30E0F901EE0FF4
S11356E0FF1FE20FF31FEE0FFF1FE757F74E93E084
S11356F0948360CF0895282F30E0F901EE0FFF1F47
S1135700E20FF31FEE0FFF1FE757F74E94E0948369
S113571005CF089590E0FC01EE0FFF1FDF01A80FF5
S1135720B91FAA0FBB1FA757B74E26E015962C9397
S11357301597FD011482089590E0FC01EE0FFF1F00
S1135740DF01A80FB91FAA0FBB1FA757B74E1596A5
S11357501C921597FD01148208958091AF18811150
S11357600CC08CE08093B8008FEF8093BB0084E082
S11357708093BC0081E08093AF180895AF92BF92EC
S1135780CF92DF92EF92FF920F931F93CF93DF9309
S1135790A82EB62E69017A0184E090E029D3EC01A9
S11357A0892B61F1A88281E0B81212C0C701B60149
S11357B020EA36E841E050E0F1D2DA01C90140972D
S11357C0A109B109B695A79597958795898311C0C5
S11357D0C701B60120E83AE146E050E0DFD2DA0141
S11357E0C9014097A109B109B695A79597958795E1
S11357F089831B830A838C2F9D2F02C080E090E055
S1135800DF91CF911F910F91FF90EF90DF90CF9098
S1135810BF90AF9008958091BC0081700895FF926D
S11358200F931F93CF93DF930097D1F14A30D0F5B4
S1135830F42E8B01EC01EFDF811136C08091A218A8
S11358409091A318C817D90741F087DF8981809305
S1135850B800D093A318C093A21881E08F0D809351
S1135860A4188881880F8093A518FF2089F0F80177
S1135870A6EAB8E14FEF4F0D642F70E0CB0101961B
S1135880B801680F791F81918D93E617F707D9F74F
S113589088EF8093210285EA8093BC0084E005C0F0
S11358A086E003C087E001C082E0DF91CF911F91C1
S11358B00F91FF9008951F93CF93DF93009729F1E1
S11358C06B3028F5162FEC01A6DF811122C08091E0
S11358D0A2189091A318C817D90741F03EDF898117
S11358E08093B800D093A318C093A2181093A4185F
S11358F08881880F81608093A51888EF80932102A6
S113590085EA8093BC0085E005C086E003C087E09B
S113591001C082E0DF91CF911F9108951F920F92F1
S11359200FB60F9211240BB60F922F933F934F9300
S11359305F936F937F938F939F93AF93BF93EF93F3
S1135940FF93E091B9008E2F90E0FC013897E13588
S1135950F10508F075C08827E458FF4F8F4F40C207
S11359601092A118E091A1188091A418E81770F47E
S113597081E08E0F8093A118F0E0EB55F74E808103
S11359808093BB0085E88093BC0072C084E9809357
S1135990BC008091A2189091A318DC011296ED919D
S11359A0FC911397309709F463C020E040E050E085
S11359B064E019955DC0E091A11881E08E0F809399
S11359C0A1188091BB00F0E0EB55F74E80838091E5
S11359D0B900803411F41092A1182091A11830E07C
S11359E08091A41890E001972817390724F485ECD6
S11359F08093BC003DC085E88093BC0039C0809191
S1135A00BB00E091A118F0E0EB55F74E808384E9E8
S1135A108093BC008091A2189091A318DC01129687
S1135A20ED91FC911397309719F12091A41845EA50
S1135A3058E165E019951CC085EA8093BC0018C044
S1135A408091B9008093210284E08093BC0080910E
S1135A50A2189091A318DC011296ED91FC91139772
S1135A60309731F020E040E050E060912102199538
S1135A70FF91EF91BF91AF919F918F917F916F9122
S1135A805F914F913F912F910F900BBE0F900FBEDE
S1135A900F901F901895FC01411101C0CAD2842FA8
S1135AA090E09C012150310982239323892B09F032
S1135AB0C0D2413808F0BDD2128213824483440F0D
S1135AC0415045837183608380E090E0089550588D
S1135AD0BB27AA270ED0EBC0DCD030F0E1D020F0F9
S1135AE031F49F3F11F41EF4D1C00EF4E095E7FBAE
S1135AF0C7C0E92F0E94862078F3BA17620773079C
S1135B008407950720F079F4A6F50C94A8200EF4E8
S1135B10E0950B2EBA2FA02D0B01B90190010C01B9
S1135B20CA01A0011124FF27591B99F0593F50F4D1
S1135B30503E68F11A16F040A22F232F342F442729
S1135B40585FF3CF469537952795A795F040539521
S1135B50C9F77EF41F16BA0B620B730B840BBAF0F1
S1135B609150A1F0FF0FBB1F661F771F881FC2F75C
S1135B700EC0BA0F621F731F841F48F48795779570
S1135B806795B795F7959E3F08F0B1CF9395880F29
S1135B9008F09927EE0F9795879508950DD087C043
S1135BA07FD048F076D038F021F45F3F21F068C010
S1135BB051110C94A9206AC00E94862088F399236D
S1135BC0B9F35523A1F3951B550BBB27AA276217DD
S1135BD07307840738F09F5F5F4F220F331F441F02
S1135BE0AA1FA9F334D00E2E3AF0E0E831D0915038
S1135BF05040E695001CCAF72AD0FE2F28D0660F25
S1135C00771F881FBB1F261737074807AB07B0E865
S1135C1009F0BB0B802DBF01FF2793585F4F32F073
S1135C209E3F510570F02CC00C94A9205F3FE4F313
S1135C30983ED4F3869577956795B795F7959F5FCA
S1135C40C9F7880F911D9695879597F90895E1E016
S1135C50660F771F881FBB1F621773078407BA0775
S1135C6020F0621B730B840BBA0BEE1F88F7E095D0
S1135C7008950E941D206894B1110C94A9200895E0
S1135C8097F99F6780E870E060E008959FEF80ECEB
S1135C90089500240A94161617061806090608958E
S1135CA000240A9412161306140605060895092EF4
S1135CB00394000C11F4882352F0BB0F40F4BF2B63
S1135CC011F460FF04C06F5F7F4F8F4F9F4F0895A3
S1135CD00CD0EDCFDEDF28F0E3DF18F0952309F0D8
S1135CE0CFCFD4CF11240C94A9200E94862090F306
