:10000000E5C0000004C1000002C1000000C1000002
:10001000FEC00000FCC00000FAC00000F8C00000F4
:10002000F6C00000F4C00000F2C00000F0C0000004
:100030003EC50000ECC00000EAC00000E8C00000BF
:10004000E6C00000E4C00000E2C00000E0C0000024
:10005000DEC00000DCC00000DAC00000D8C0000034
:10006000D6C000000C947C270C94CE27D0C0000092
:10007000CEC00000CCC00000CAC00000C8C0000054
:10008000C6C00000C4C00000C2C00000C0C0000064
:100090000C9412280C946428BAC000000C941B2CF9
:1000A000B6C00000B4C00000B2C00000B0C0000084
:1000B000AEC00000ACC00000AAC00000A8C0000094
:1000C000A6C00000A4C00000A2C000000C94A82894
:1000D0000C94FA289CC000000C943E290C949029A2
:1000E00096C00000131B131B131B4A1B521B671BDC
:1000F000131B131B4A1B521B3D2CAD2CAD2CAD2CDE
:10010000AD2CAD2CAD2CAD2C3D2CAD2CAD2CAD2C97
:10011000AD2CAD2CAD2CAD2C3F2CAD2CAD2CAD2C85
:10012000AD2CAD2CAD2CAD2CAD2CAD2CAD2CAD2C07
:10013000AD2CAD2CAD2CAD2C3F2CAD2CAD2CAD2C65
:10014000AD2CAD2CAD2CAD2CAD2CAD2CAD2CAD2CE7
:10015000AD2CAD2CAD2CAD2CA92CAD2CAD2CAD2CDB
:10016000AD2CAD2CAD2CAD2C742CAD2CAD2CAD2C00
:10017000AD2CAD2CAD2CAD2CAD2CAD2CAD2CAD2CB7
:10018000AD2CAD2CAD2CAD2C682CAD2CAD2CAD2CEC
:10019000AD2CAD2CAD2CAD2C8C2C0E94540D80912F
:1001A000A716823008F0BDD30E94901BF6CFCF93E4
:1001B000DF931F92CDB7DEB7CE0101960E94901853
:1001C00049810E94851A0E94DC1AF6CF11241FBEB5
:1001D000CFEFD1E2DEBFCDBF00E00CBF18E0A0E062
:1001E000B2E0EEEBF6E600E00BBF02C007900D9226
:1001F000AA39B107D9F728E1AAE9B8E001C01D92F0
:10020000A43DB207E1F70E94F01F0C945D33F8CED5
:100210000F9301110CC0DC01CB0182239323A42393
:10022000B523892B8A2B8B2B79F480E010C0DC015D
:10023000CB0182239323A423B523281739074A0728
:100240005B0721F080E003C081E001C081E00F91F5
:100250000895CF93DF938FE090E0AFD1EC0100974A
:1002600039F0FC011192119211921192CF018BD2AF
:10027000CE01DF91CF9108952F923F924F925F92DE
:100280006F927F928F929F92AF92BF92CF92DF92A6
:10029000EF92FF920F931F93CF93DF93EC014A01EC
:1002A0005B01622E702E0E949F0E288039804A804A
:1002B0005B80A5019401C201B101AADF8823A1F0EE
:1002C000662089F1D501C40180959095A095B095DF
:1002D00082219321A421B52188839983AA83BB839A
:1002E000C12CD12C760122C0C114D104E104F10447
:1002F000E9F0611004C040E050E0BA0104C040E001
:1003000050E060E071E071107460482959296A2951
:100310007B2997018601CE0104960E94B711212CFA
:10032000312C210103C0C12CD12C76010E94DF0F9A
:10033000CD28CE28CF2859F1811101C0F2D20E94D8
:1003400079156B017C0191FD1FC00FB6F8940F92D7
:10035000C880D980EA80FB80072DA5019401C701E0
:10036000B60156DF882371F0662061F08094909486
:10037000A094B0948C209D20AE20BF2088829982CA
:10038000AA82BB820F900FBE160127015524C2011D
:10039000B101DF91CF911F910F91FF90EF90DF900E
:1003A000CF90BF90AF909F908F907F906F905F9015
:1003B0004F903F902F9008954F925F926F927F924F
:1003C000AF92BF92CF92DF92EF92FF920F931F9363
:1003D000CF93DF93EC016A017B018C01095F1F4F12
:1003E0000E949F0EEB85FC8588819981AA81BB8143
:1003F000C82AD92AEA2AFB2AC882D982EA82FB8241
:10040000C12CD12C76013DC0A480B5808081918122
:10041000A281B381AC01BD017727B2FD0EC0488037
:1004200059806A807B8044225522662277224528A3
:100430004628472889F420E012C0488059806A8005
:100440007B80442255226622772244155505660595
:10045000770521F020E003C021E001C021E0222344
:1004600071F0B0FF04C0C42AD52AE62AF72A4881D1
:1004700059816A817B817260CF010E94F212EA2D5C
:10048000FB2DE017F10709F0BFCFC094D094E094A2
:10049000F09488819981AA81BB81C822D922EA225D
:1004A000FB22C882D982EA82FB820E94DF0F688128
:1004B00079818A819B81DF91CF911F910F91FF906C
:1004C000EF90DF90CF90BF90AF907F906F905F9054
:1004D0004F900895E6EAF8E0AAEAB8E0B183A08375
:1004E00013821282E2E5F6E1F093A508E093A408F6
:1004F000138212821182108288EA9DE013969C93E7
:100500008E931297ED93FC939093A1088093A0088B
:100510009093A3088093A20880E090E890939B08B2
:1005200080939A080895CF93DF93EC01A6EAB8E090
:1005300001C0DF01ED91FC911197EC17FD07C8F3A5
:1005400012968D919C9113979D01280F391FC21708
:10055000D30749F42A813B81820F931F13969C9302
:100560008E931297ED018A819B819E01280F391F7E
:10057000E217F307C1F42091A4083091A508E2170F
:10058000F30771F022813381820F931F9B838A834B
:10059000ED91FC911197808191819983888305C0A9
:1005A0003983288302C0F983E883CA17DB0711F077
:1005B000CD93DC93DF91CF910895EF92FF920F934B
:1005C0001F93CF93DF938C010E949F0E8091A4080C
:1005D0009091A508892B09F47DDF80919A0890916C
:1005E0009B0880239123892B09F076C00115110502
:1005F00049F0C80104960817190718F000E010E048
:1006000001C08C010115110509F469C08091A2088F
:100610009091A3088017910708F464C0C091A608C0
:10062000D091A708E6EAF8E002C0FE01EC018A8159
:100630009B818017910720F4888199810097A9F701
:100640008091A4089091A508C817D90709F44DC056
:10065000E080F18084E0E80EF11C8881998191832B
:1006600080832A813B81201B310B2930310548F0E2
:10067000CE01800F911FFC01338322831B830A83E9
:1006800052DF2A813B818091A2089091A308821BAE
:10069000930B9093A3088093A2084091A0085091D7
:1006A000A1088417950720F49093A1088093A008CF
:1006B00080919A0890919B08282B392B3B832A83A1
:1006C0001982188280919E0890919F0801969093BC
:1006D0009F0880939E080BC0E12CF12C08C0E12CF0
:1006E000F12C05C0E12CF12C02C0E12CF12C0E9470
:1006F000DF0FE114F10411F40E949C1BC701DF918C
:10070000CF911F910F91FF90EF9008950F931F933A
:10071000CF93DF93009791F1EC0124974A815B819D
:1007200020919A0830919B08BA0162237323672BAA
:1007300029F168817981672B09F52095309524236B
:1007400035233B832A830E949F0E8A819B812091BF
:10075000A2083091A308820F931F9093A30880935F
:10076000A208CE01E0DE80919C0890919D08019640
:1007700090939D0880939C080E94DF0FDF91CF919A
:100780001F910F910895FC010396928381834FEF8F
:100790005FEFBA01438354836583768390878783B1
:1007A0009287818710820895FC011386128608952E
:1007B0000F931F93CF93DF93EB01088119812A8157
:1007C0003B810F3F4FEF14072407340721F4FC014E
:1007D000A185B28511C0DC01139601C0DF0114961A
:1007E000ED91FC91159740815181628173810417CD
:1007F00015072607370790F71496ED91FC9115978A
:10080000FD83EC83D783C683BF83AE831596DC93C9
:10081000CE9314979B878A87FC0120812F5F2083CA
:10082000DF91CF911F910F910895CF93DF93FC013A
:10083000A285B385C481D581868197819F838E836C
:10084000C681D781848195819D838C8311968D91FA
:100850009C911297E817F90731F4868197811296D7
:100860009C938E931197138612868C9181508C9352
:100870008C91DF91CF910895A89590EC88E10FB607
:10088000F894A895809360000FBE9093600008953F
:10089000FC01608331977083319710823197108209
:1008A000319720E820833197108231971082319759
:1008B0001082779740833197508386970895DCDFC5
:1008C000A0911517B0911617CD91CDBFDD91DEBF68
:1008D000FF91EF91DF91CF91BF91AF919F918F9158
:1008E0007F916F915F914F913F912F911F910F9148
:1008F000FF90EF90DF90CF90BF90AF909F908F9040
:100900007F906F905F904F903F902F901F900F902F
:100910000CBE0F900BBE0F900FBE0F90089581E09C
:1009200008950F920FB6F8940F920BB60F920CB673
:100930000F921F9211242F923F924F925F926F92CB
:100940007F928F929F92AF92BF92CF92DF92EF925F
:10095000FF920F931F932F933F934F935F936F9348
:100960007F938F939F93AF93BF93CF93DF93EF9337
:10097000FF93A0911517B09116170DB60D920EB6F4
:100980000D920E943B11A0911517B0911617CD91B1
:10099000CDBFDD91DEBFFF91EF91DF91CF91BF9190
:1009A000AF919F918F917F916F915F914F913F9107
:1009B0002F911F910F91FF90EF90DF90CF90BF90FC
:1009C000AF909F908F907F906F905F904F903F90EF
:1009D0002F901F900F900CBE0F900BBE0F900FBE6C
:1009E0000F9008950F920FB6F8940F920BB60F92D6
:1009F0000CB60F921F9211242F923F924F925F924A
:100A00006F927F928F929F92AF92BF92CF92DF921E
:100A1000EF92FF920F931F932F933F934F935F9308
:100A20006F937F938F939F93AF93BF93CF93DF93F6
:100A3000EF93FF93A0911517B09116170DB60D9275
:100A40000EB60D9213BE0E94B30E81110E943B118F
:100A5000A0911517B0911617CD91CDBFDD91DEBFD6
:100A6000FF91EF91DF91CF91BF91AF919F918F91C6
:100A70007F916F915F914F913F912F911F910F91B6
:100A8000FF90EF90DF90CF90BF90AF909F908F90AE
:100A90007F906F905F904F903F902F901F900F909E
:100AA0000CBE0F900BBE0F900FBE0F9008959ADFF3
:100AB0001895DC0153962C915397222341F05A96B6
:100AC000ED91FC915B9790818AE0891B089580E00D
:100AD00008950FB6F8940F92FC01868D811102C023
:100AE00081E001C080E00F900FBE08950FB6F8942A
:100AF0000F92FC01268D878D281302C081E001C072
:100B000080E00F900FBE08950F931F93CF93DF9354
:100B1000EC01042F1E8D48A141110CC088819981E0
:100B2000892B09F042C08C819D810E94B7141D82DF
:100B30001C8242C0011117C050E08A819B810E9433
:100B4000E02F28A18A819B81820F911D9B838A833C
:100B50002C813D818217930750F1888199819B8375
:100B60008A8380E029C050E08E819F810E94E02F1F
:100B700088A190E09195819591092E813F81280F60
:100B8000391F3F832E83488159812417350730F45C
:100B90002C813D81820F931F9F838E83023049F405
:100BA000112349F0115080E007C080E005C080E0CB
:100BB00003C080E001C080E01F5F1E8FDF91CF91F6
:100BC0001F910F910895FC0140A14423A9F050E02A
:100BD00026813781240F351F3783268384819581B1
:100BE0002817390720F08081918197838683CB0174
:100BF000668177810C94E02F08951F93CF93DF9344
:100C0000EC010FB6F8940F921AA10BC08B898823C0
:100C100051F0CE0143960E94431281110E94191493
:100C2000115011169CF38FEF8AA30F900FBE0FB6D1
:100C3000F8940F9219A10BC08885882351F0CE013A
:100C400008960E94431281110E9419141150111626
:100C50009CF38FEF89A30F900FBEDF91CF911F916F
:100C60000895CF93DF93EC010FB6F8940F92E881CB
:100C7000F9818F8D28A190E030E0829FA001839FB1
:100C8000500D929F500D11244E0F5F1F5D834C83BA
:100C90001E8EFB83EA830197289FA001299F500D98
:100CA000389F500D1124CF01840F951F9F838E8391
:100CB0008FEF89A38AA361110BC08885882371F007
:100CC000CE0108960E944312882341F02ADE06C016
:100CD000CE01089658DDCE01439655DD0F900FBE2C
:100CE00081E0DF91CF9108950F931F93F801611177
:100CF00003C01183008302C051834083878F60A3A8
:100D000061E0CF01AEDF1F910F910895DF92EF9266
:100D1000FF920F931F93CF93DF93F82EE62ED42EDE
:100D2000869FC0011124839648DCEC01009741F0B6
:100D30008C012D2DAC014D5D5F4F6E2D8F2DD4DFBD
:100D4000CE01DF91CF911F910F91FF90EF90DF9037
:100D50000895CF92DF92EF92FF920F931F93CF935C
:100D6000DF93CDB7DEB729970FB6F894DEBF0FBE7D
:100D7000CDBF7C016B012E833F834887598710E0EC
:100D80000FB6F8940F92F701968D878D981710F093
:100D90000230B1F4402FB601C701B6DEF7019389E6
:100DA000992341F0C70143960E944312882321F002
:100DB000B8DD02C08111B5DD0F900FBE81E04CC0DF
:100DC0008E819F81A885B985892B8A2B8B2B21F455
:100DD0000F900FBE80E040C0111105C0CE010196FA
:100DE0000E94A21311E00F900FBEA9D70FB6F8947E
:100DF0000F92F70181A18F3F09F411A2F70182A19F
:100E00008F3F09F412A20F900FBEBE016A5F7F4FA1
:100E1000CE0101960E94B313811119C0C70166DE8D
:100E2000882381F04E815F8168857985C7010896A6
:100E30000E94A011C701E1DE0E94DF0F8111A0CF47
:100E400070DD9ECFC701D9DE0E94DF0F99CFC701A9
:100E5000D4DE0E94DF0F80E029960FB6F894DEBF43
:100E60000FBECDBFDF91CF911F910F91FF90EF90FB
:100E7000DF90CF900895EF92FF920F931F93CF933F
:100E8000DF938A01FC01568D378D531710F0223005
:100E9000F9F4422F7801EC011AA18E8DCE0134DED7
:100EA0001F3F81F48B898823A9F0CE0143960E94CD
:100EB0004312882389F0E114F10481F081E0F70105
:100EC00080830DC0FF24F394F10EFAA281E007C0E5
:100ED00080E005C081E003C081E001C081E0DF91D6
:100EE000CF911F910F91FF90EF900895CF92DF92D5
:100EF000EF92FF920F931F93CF93DF93CDB7DEB79F
:100F000029970FB6F894DEBF0FBECDBF8C016B01E1
:100F10002E833F8348875987E12C0FB6F8940F92B0
:100F2000F801F68CFF2099F0B601C8014CDEFA9466
:100F3000F801F68E8085882331F0C80108960E945A
:100F400043128111EEDC0F900FBE81E04FC08E8105
:100F50009F81A885B985892B8A2B8B2B21F40F9033
:100F60000FBE80E043C0E11006C0CE0101960E9492
:100F7000A213EE24E3940F900FBEE1D60FB6F894BF
:100F80000F92F80181A18F3F09F411A2F80182A10B
:100F90008F3F09F412A20F900FBEBE016A5F7F4F10
:100FA000CE0101960E94B313811117C0C80191DDD3
:100FB000882379F04E815F8168857985C8014396E1
:100FC0000E94A011C80119DEFAD78111A6CFA9DCB1
:100FD000A4CFC80112DEF3D7A0CFC8010EDEEFD731
:100FE000C80177DD882309F498CF80E029960FB6F1
:100FF000F894DEBF0FBECDBFDF91CF911F910F914F
:10100000FF90EF90DF90CF900895EF92FF920F93B3
:101010001F93CF93DF93CDB7DEB729970FB6F89420
:10102000DEBF0FBECDBF8C014E835F83688779879B
:10103000E12CF12C0FB6F8940F92F801868D8823DD
:10104000C9F08150868F80819181892B29F40E947B
:10105000A315F80195838483F8018085882331F0F6
:10106000C80108960E94431281115BDC0F900FBEED
:1010700081E06FC08E819F81A885B985892B8A2BDD
:101080008B2B21F40F900FBE80E063C0F11006C0DF
:10109000CE0101960E94A213FF24F3940F900FBE7D
:1010A0004ED60FB6F8940F92F80181A18F3F09F444
:1010B00011A2F80182A18F3F09F412A20F900FBE76
:1010C000BE016A5F7F4FCE0101960E94B31381116A
:1010D00026C0C801FEDC8823F1F0F80180819181EF
:1010E000892B51F40FB6F8940F92848195810E9458
:1010F0003014E82E0F900FBE4E815F816885798590
:10110000C80143960E94A011C80177DD58D781110C
:1011100091CF07DC8FCFC80170DD51D78BCFC801CD
:101120006CDD4DD7C801D5DC882309F483CFEE20D0
:1011300079F00FB6F8940F92C801BBDC682FF80164
:10114000848195810E9412150F900FBE80E001C02E
:1011500080E029960FB6F894DEBF0FBECDBFDF91B9
:10116000CF911F910F91FF90EF900895CF93DF9350
:10117000EC010FB6F8940F9289A18F3F09F419A2E0
:101180008AA18F3F09F41AA20F900FBE8E8D811194
:1011900004C0CE0143960E940112CE012EDDDF91E4
:1011A000CF910895FC014481558122813381240F20
:1011B000351F80819181B901681B790BCB016417C0
:1011C000750710F0841B950B08950F93FC018FE0B9
:1011D000DF011D928A95E9F77587648755834483FB
:1011E0003783268306870F910895AF92BF92CF92DF
:1011F000DF92EF92FF920F931F93CF93DF936C01D7
:101200005B017A01FC01C281D381048115810C1B31
:101210001D0B4017510708F48A01F6018485958556
:10122000A801B5018C0F9D1F0E94E02F0E151F0510
:1012300058F4A701401B510BB501600F711FF60157
:10124000848595850E94E02FCE018E0D9F1DF601AD
:10125000248135818217930710F0821B930BF601CE
:1012600093838283C701DF91CF911F910F91FF90EC
:10127000EF90DF90CF90BF90AF900895CF92DF9224
:10128000EF92FF920F931F93CF93DF931F921F92C2
:10129000CDB7DEB77C016B015A8349832115310537
:1012A000C1F0FC01868580FD08C04217530708F491
:1012B0009A013A83298381E00FC02017310758F043
:1012C00042E050E0BE016F5F7F4FC7018EDF81E0DB
:1012D00003C080E001C080E0882331F049815A8159
:1012E000B601C70182DF02C080E090E00F900F904E
:1012F000DF91CF911F910F91FF90EF90DF90CF90F2
:101300000895AF92BF92CF92DF92EF92FF920F9328
:101310001F93CF93DF937C015B01E90142175307D1
:1013200008F4EA01209781F1F7010081118184819D
:101330009581801B910B6E018C179D0708F46C0141
:10134000F70164857585600F711FA601C5010E94B4
:10135000E02FCC16DD0658F4AE014C195D09F701FB
:1013600064857585C5018C0D9D1D0E94E02F0C0FB5
:101370001D1FF701848195810817190710F0081BBC
:10138000190BF70111830083CE01DF91CF911F91DB
:101390000F91FF90EF90DF90CF90BF90AF900895A6
:1013A0006F927F928F929F92AF92BF92CF92DF9275
:1013B000EF92FF920F931F93CF93DF931F921F9291
:1013C000CDB7DEB76C014B015A017901011511054A
:1013D000B1F0FC0160807180A801BE016F5F7F4F9A
:1013E00090DF89819A81E01AF10AA816B90630F4D3
:1013F000F60171826082A12CB12C01C05C019701C1
:10140000A501B401C6017DDF0F900F90DF91CF9150
:101410001F910F91FF90EF90DF90CF90BF90AF9012
:101420009F908F907F906F900895CF92DF92EF9270
:10143000FF920F93CF93DF93EC016B01413011F4D6
:1014400001E001C000E0C114D10419F4CC24C3941C
:10145000D12CCE014096C817D90720F42196ADD8DB
:101460007C0102C0E12CF12CE114F10439F0960169
:10147000AE01B701615F7F4FC701A7DEC701DF91F2
:10148000CF910F91FF90EF90DF90CF9008950F9341
:101490000FB6F8940F92FC0120853185232B71F44F
:1014A00022853385232B61F4268137814481558140
:1014B00064857585068589DE81E003C080E001C012
:1014C00080E00F900FBE0F910895FC0124813581BB
:1014D00080819181820F931F42815381841B950BE0
:1014E00001978217930710F0821B930B08952F9298
:1014F0003F924F925F926F927F928F929F92AF92A4
:10150000BF92CF92DF92EF92FF920F931F93CF93F0
:10151000DF93CDB7DEB72B970FB6F894DEBF0FBEC3
:10152000CDBF4C017B876A871A010E831F832887F2
:101530003987FC01848195810197268520FF0CC0A5
:101540002A01F2E04F0E511C8415950558F41E82B5
:101550001F821886198606C08417950710F02A0185
:1015600001C02C018E819F81A885B985892B8A2B8A
:101570008B2B09F438C0CE0101960E948C130FB654
:10158000F8940F92C401A1DF3C018415950540F544
:1015900060E080E090E00E9476180E941D14F40143
:1015A000938782870F900FBEAE80BF80C884D98496
:1015B000E12CF12C00E010E0980140E050E0BA018D
:1015C00080E00E94B515F40113861286BE016A5FA1
:1015D0007F4FCE0101960E94B313882381F205C08C
:1015E0000F900FBE02C0612C712C6114710419F4AC
:1015F000C4016BDF3C0182019301A1016A857B85F7
:10160000C4013CDE6C01892BE9F0C401CBDDF4019F
:101610002681378182179307A8F091D3F401808542
:101620009185892B71F080859185E12CF12C00E06A
:1016300020E030E0A90160E00E945D16F40111860F
:101640001086BDD4C6012B960FB6F894DEBF0FBE30
:10165000CDBFDF91CF911F910F91FF90EF90DF9061
:10166000CF90BF90AF909F908F907F906F905F9042
:101670004F903F902F900895AF92BF92CF92DF92FC
:10168000EF92FF920F931F93CF93DF93EC017B01B7
:101690005A0169018E8580FF04C08A010E5F1F4FC9
:1016A00001C08A01CE0111DF9C01A501B701CE0165
:1016B000E5DD5C01892BC1F0CE0174DD2E813F8117
:1016C0008217930788F088859985892B69F088852A
:1016D0009985E12CF12C00E020E030E0A90160E0E8
:1016E0000E94541719861886C501DF91CF911F916A
:1016F0000F91FF90EF90DF90CF90BF90AF90089543
:101700004F925F926F927F928F929F92AF92BF9211
:10171000CF92DF92EF92FF920F931F93CF93DF93BD
:10172000EC012B013A01580169018E8580FF05C04B
:101730006894882481F8912C02C0812C912CA114EA
:10174000B104C104D10441F10FB6F8940F92CE0157
:1017500029DD7C018816990648F060E080E090E081
:101760000E9476180E941D14998788870F900FBEDB
:101770008E149F04A0F0E12CF12C00E010E0980101
:1017800040E050E0BA0180E00E94B5151986188645
:10179000CE0108DD7C0103C0CE0104DD7C018E1486
:1017A0009F04E8F484019701A301B201CE01F8DDA2
:1017B0006C01892BB1F0C3D28A859B85892B69F096
:1017C0008A859B85E12CF12C00E020E030E0A90126
:1017D00060E00E945D161B861A86F1D302C0C12C00
:1017E000D12CC601DF91CF911F910F91FF90EF9007
:1017F000DF90CF90BF90AF909F908F907F906F9031
:101800005F904F900895E0918F16F091901680812F
:1018100081110CC08FEF9FEFDC01809359169093DC
:101820005A16A0935B16B0935C160895E0918F163C
:10183000F09190160780F085E02D80819181A28142
:10184000B3818093591690935A16A0935B16B09368
:101850005C160895CF93DF93EC018B8D9C8D0E94D5
:101860008603CE010E948603DF91CF9108954F92A7
:101870005F926F927F928F929F92AF92BF92CF9220
:10188000DF92EF92FF920F93CF93DF932C015B01D6
:101890004A013901E60165EA70E08B8D9C8D0E945A
:1018A000E92F8B8D9C8D21E0821A9108880E991E5C
:1018B000A114B10489F415C0822F90E0F501E80F5E
:1018C000F91F3081DE01A80FB91F5D963C9380811E
:1018D000882329F02F5F01C020E0203168F31CA687
:1018E00001C01D8E0A3008F009E00A8F0DA71EA660
:1018F000CE0102960E94D403CE010E960E94D4031C
:10190000DB87CA878AE090E0A0E0B0E0801B910905
:10191000A109B1098E879F87A88BB98BDF8BCE8BEE
:1019200084E0FE01BF96DF011D928A95E9F71BAAAC
:10193000A301B201C4010E94480499838883E11481
:10194000F10419F0F701D183C083DF91CF910F919A
:10195000FF90EF90DF90CF90BF90AF909F908F90CF
:101960007F906F905F904F900895CF93C0E009C033
:101970002BE0C29FC00111248955994E0E94C303D8
:10198000CF5FCA30A8F38CE996E10E94C30381E9D6
:1019900096E10E94C30382E896E10E94C30387E7B1
:1019A00096E10E94C3038BE696E10E94C3038CE993
:1019B00096E19093901680938F1681E996E190932B
:1019C0008E1680938D16CF910895CF93DF93EC01FF
:1019D0000FB6F8940F9280916A168F5F80936A1603
:1019E0008091151790911617892B51F4D0931617E3
:1019F000C093151780916A16813091F4B6DF10C03C
:101A00008091641681110CC0E0911517F0911617A2
:101A1000928D8A8D891720F0D0931617C0931517D1
:101A200080915D168F5F80935D16EA8D80916516BB
:101A30008E1710F4E09365168BE08E9FF001112451
:101A4000E955F94E0180F281E02DFF83EE83268176
:101A5000378139872887A681B7819E012E5F3F4F46
:101A600015963C932E93149737832683EA8D8E9F89
:101A7000F0011124E955F94EFD87EC8780818F5FD5
:101A800080830F900FBE80916416882351F0E091FF
:101A90001517F0911617928D8A8D981710F40E94E1
:101AA0009104DF91CF910895CF93DF931BC00FB6C0
:101AB000F8940F92E0917E16F0917F16C085D18543
:101AC000CE0102960E94150480916A16815080937F
:101AD0006A16809176168150809376160F900FBE0D
:101AE000CE01B8DE809176168111E1CFDF91CF91E2
:101AF00008958F929F92AF92BF92CF92DF92EF9212
:101B0000FF92CF93DF936B017C01C42F8090661608
:101B100090906716A0906816B0906916809115177E
:101B20009091161702960E9415048FEFC816D806DA
:101B3000E806F806B1F5CC23A1F1EBE6F6E1A181C8
:101B4000B281C0911517D0911617BF83AE83C09193
:101B50001517D091161716968D919C911797998706
:101B600088871696CD91DC911797809115179091E3
:101B7000161702969D838C838091151790911617E6
:101B8000029617969C938E931697A0911517B09175
:101B900016171D96FC93EE931C9780818F5F8083B0
:101BA0003FC0C80CD91CEA1CFB1CE0911517F09132
:101BB0001617C282D382E482F582C814D904EA04DB
:101BC000FB0468F4609115177091161780918D16BB
:101BD00090918E166E5F7F4F0E94D80321C0609156
:101BE00015177091161780918F16909190166E5F51
:101BF0007F4F0E94D8038091591690915A16A09158
:101C00005B16B0915C16C816D906EA06FB0640F4CE
:101C1000C0925916D0925A16E0925B16F0925C165A
:101C2000DF91CF91FF90EF90DF90CF90BF90AF907A
:101C30009F908F9008952F923F924F925F926F9254
:101C40007F928F929F92AF92BF92CF92DF92EF924C
:101C5000FF920F93CF93DF933C011B014A012901AF
:101C6000CA010E94DD026C01892B71F084E390E0CF
:101C70000E94DD02EC01892B19F0DC8ECB8E06C0B0
:101C8000C6010E94860302C0C0E0D0E0209761F048
:101C9000A12CB12C6E019201A401B101C301E7DDB9
:101CA000CE0193DE81E001C08FEFDF91CF910F91E4
:101CB000FF90EF90DF90CF90BF90AF909F908F906C
:101CC0007F906F905F904F903F902F900895EF928C
:101CD000FF920F930F2EF7E5EF2EF6E1FF2EF02D7A
:101CE00000E020E030E040EC50E06FE672E08DEC88
:101CF00090E0A1DF813011F40E941A198130C9F4FB
:101D0000F8948FEF9FEFDC018093591690935A1649
:101D1000A0935B16B0935C1681E0809364161092DA
:101D200066161092671610926816109269160E9435
:101D30005F04809106020F91FF90EF9008958091CB
:101D400056168F5F8093561608950FB6F8940F922B
:101D50006091661670916716809168169091691669
:101D60000F900FBE0895CF92DF92EF92FF92CF9324
:101D7000DF9380915616811105C1C0906616D090F0
:101D80006716E0906816F09069168FEFC81AD80AA7
:101D9000E80AF80AC0926616D0926716E0926816B2
:101DA000F0926916C114D104E104F104B1F48091F8
:101DB0008F169091901620918D1630918E1630933B
:101DC000901620938F1690938E1680938D16809187
:101DD0005E168F5F80935E1616DD80915916909186
:101DE0005A16A0915B16B0915C16C816D906EA0681
:101DF000FB0620F480E0B2C081E001C080E0E09109
:101E00008F16F0919016908191110CC04FEF5FEFFB
:101E1000BA014093591650935A1660935B1670930B
:101E20005C169CC0E0918F16F09190160780F085AB
:101E3000E02D0084F185E02D42815381648175811C
:101E4000C416D506E606F70648F440935916509393
:101E50005A1660935B1670935C1680C0A485B58596
:101E6000C681D781208531853F832E83C085D1856A
:101E7000268137813D832C8311964D915C91129779
:101E80009F012E5F3F4F4217530731F44085518524
:101E900012965C934E931197158614869C919150DF
:101EA0009C93A08DB18D109709F1C289D389448983
:101EB00055895F834E83C489D589428953895D835F
:101EC0004C8311966D917C911297AF01425F5F4FE9
:101ED0006417750731F44489558912965C934E93C3
:101EE0001197118E108E9C9191509C93A28D909180
:101EF00065169A1710F4A09365169BE09A9FD0017F
:101F00001124A955B94E11960D90BC91A02DB783FF
:101F1000A68316964D915C91179751874087169628
:101F2000CD91DC9117973D832C8317963C932E938C
:101F30001697A28D9A9FD0011124A955B94EB58745
:101F4000A4879C919F5F9C93228DE0911517F0913F
:101F50001617928D291708F04FCF51CFE091151722
:101F6000F0911617E28D9BE0E99FF0011124E955ED
:101F7000F94E9081923008F081E090915F169111B6
:101F800016C016C08091601690916116A0916216DD
:101F9000B09163160196A11DB11D809360169093B8
:101FA0006116A0936216B093631680E001C081E0D1
:101FB000DF91CF91FF90EF90DF90CF900895CF9277
:101FC000DF92EF92FF92CF93DF930FB6F8940F92C8
:101FD0008091561681508093561680915616811125
:101FE000BEC080916A16811188C0BCC0E09189167C
:101FF000F0918A160084F185E02DA08DB18DC28903
:10200000D389848995899F838E83C489D589828960
:1020100093899D838C8311962D913C911297CF01CA
:102020000E962817390731F48489958912969C9366
:102030008E931197118E108E8C9181508C93A48564
:10204000B585C681D781808591859F838E83C08524
:10205000D185868197819D838C8311968D919C91EA
:1020600012979F012E5F3F4F8217930731F48085AF
:10207000918512969C938E931197158614868C9158
:1020800081508C93A28D809165168A1710F4A093CD
:1020900065168BE08A9FD0011124A955B94E11967F
:1020A0000D90BC91A02DB783A68316964D915C919F
:1020B0001797518740871696CD91DC9117973D83EE
:1020C0002C8317963C932E931697A28D8A9FD0014E
:1020D0001124A955B94EB587A4878C918F5F8C9335
:1020E000928DA0911517B09116175A968C9198174A
:1020F00030F081E080935F1602C0E0E0F0E0809174
:102100008216811173CFEF2B09F07DDBC090601632
:10211000D0906116E0906216F0906316C114D1045D
:10212000E104F104A1F01FDE882319F081E080931F
:102130005F1681E0C81AD108E108F108A1F71092F2
:1021400060161092611610926216109263168091BA
:102150005F16882331F00E94910481E003C080E083
:1021600001C080E00F900FBEDF91CF91FF90EF9004
:10217000DF90CF9008958F929F92AF92BF92CF92AF
:10218000DF92EF92FF921F93CF93DF93EC016A01EE
:102190007B01D5DD8090661690906716A09068163A
:1021A000B090691688819981AA81BB81AC01BD017B
:1021B0004C0D5D1D6E1D7F1D88169906AA06BB0677
:1021C00060F4481759076A077B0798F48416950648
:1021D000A606B70680F010E013C0481759076A0733
:1021E0007B0758F084169506A606B70640F010E067
:1021F00007C010E005C011E003C011E001C011E00C
:10220000488359836A837B83112341F0CB01BA0150
:10221000681979098A099B0940E06BDCD0DE8111DD
:1022200002C00E949104812FDF91CF911F91FF90F6
:10223000EF90DF90CF90BF90AF909F908F900895D8
:10224000CF92DF92EF92FF926B017C01672B682B9C
:10225000692B39F074DD40E0C701B6014ADCAFDE1E
:1022600001C080E0811102C00E949104FF90EF90B4
:10227000DF90CF90089580915616882321F081E059
:1022800080935F16089510925F16E0911517F091F4
:10229000161720813181E0911517F0911617838D63
:1022A000948D8217930760F060911517709116173F
:1022B000635E7F4F80911517909116170E94A81B9F
:1022C0008091651601C08150282F30E09BE0929FDD
:1022D000F001939FF00D1124E955F94E9081992357
:1022E00091F39BE0929FA001939F500D1124DF0179
:1022F0000180F281E02D0480F581E02D1296FC939F
:10230000EE9311974655594EE417F50729F4448189
:102310005581FD01528341839BE0929FF001939F81
:10232000F00D1124E955F94E0180F281E02D208550
:1023300031853093161720931517809365160895ED
:10234000CF92DF92EF92FF926A017B0160911517A5
:1023500070911617625F7F4F0E94D80341E0C7015A
:10236000B601C7DBFF90EF90DF90CF9008950F93F9
:102370001F93CF93DF93FC01A0911517B09116170F
:1023800070681E964D935D936D937C935197A181D8
:10239000B281C0911517D0911617BB8BAA8BC09133
:1023A0001517D091161716968D919C9117979D8BA6
:1023B0008C8B1696CD91DC91179780911517909183
:1023C00016170E969D838C83809115179091161782
:1023D0000E9617969C938E931697A0911517B09111
:1023E00016175996FC93EE93589780818F5F8083E0
:1023F00041E0C901B8017DDBDF91CF911F910F91C1
:102400000895CF93DF93FC01CB01BA01A181B28182
:10241000C0911517D0911617BB8BAA8BC0911517B9
:10242000D091161716964D915C9117975D8B4C8B3A
:102430001696CD91DC91179740911517509116176C
:10244000425F5F4F5D834C83409115175091161783
:10245000425F5F4F17965C934E931697A0911517A6
:10246000B09116175996FC93EE93589730813F5FC1
:102470003083222319F06FEF7FEFCB01422F39DB3E
:10248000DF91CF910895CF93DF93DC011796ED9103
:10249000FC9118970084F185E02DA08DB18DC28943
:1024A000D389848995899F838E83C489D5898289BC
:1024B00093899D838C8311968D919C9112979F0196
:1024C000225F3F4F8217930731F4848995891296D2
:1024D0009C938E931197118E108E8C9181508C93BA
:1024E00080915616811152C0A485B585C681D781C9
:1024F000808591859F838E83C085D18586819781D4
:102500009D838C8311968D919C9112979F012E5FD4
:102510003F4F8217930731F48085918512969C93E3
:102520008E931197158614868C9181508C93A28D71
:10253000809165168A1710F4A09365168BE08A9F28
:10254000D0011124A955B94E11960D90BC91A02D22
:10255000B783A68316964D915C9117975187408754
:102560001696CD91DC9117973D832C8317963C935B
:102570002E931697A28D8A9FD0011124A955B94E8A
:10258000B587A4878C918F5F8C931CC042E856E17D
:10259000DA011196CD91DC911297D38BC28B8E818B
:1025A0009F81958B848B8E819F81DC0115963C9356
:1025B0002E9314973F832E83518F408FDA018C9195
:1025C0008F5F8C93928DE0911517F0911617828D85
:1025D000891720F481E080935F1601C080E0DF91CD
:1025E000CF910895CF93DF93DC0170684D935D9395
:1025F0006D937C9313971896ED91FC9119971A9609
:102600004D915C911B9714968D919C911597169600
:102610002D913C911797EC013F832E8316968D9157
:102620009C91179714962D913C911597EC013D8341
:102630002C83EA0189819A81A817B90731F416968B
:102640008D919C9117979A8389831B961C921E9259
:102650001A97DA018C9181508C93A485B585C68137
:10266000D781808591859F838E83C085D185868122
:1026700097819D838C8311968D919C9112979F01D8
:102680002E5F3F4F8217930731F480859185129614
:102690009C938E931197158614868C9181508C9300
:1026A000A28D809165168A1710F4A09365168BE0B1
:1026B0008A9FD0011124A955B94E11960D90BC9155
:1026C000A02DB783A68316964D915C9117975187DD
:1026D00040871696CD91DC9117973D832C831796F2
:1026E0003C932E931697A28D8A9FD0011124A95551
:1026F000B94EB587A4878C918F5F8C93928DE091B2
:102700001517F0911617828D891718F481E08093C0
:102710005F16DF91CF9108950FB6F8940F92209134
:102720005E16FC01208340916616509167166091F9
:1027300068167091691641835283638374830F9086
:102740000FBE089520915E16FC012083409166160D
:102750005091671660916816709169164183528393
:102760006383748308958F929F92AF92BF92CF92AA
:10277000DF92EF92FF920F931F93CF93DF93FB01B2
:102780000FB6F8940F92C0906616D0906716E0903E
:102790006816F0906916DC0111960D911D912D912E
:1027A0003C91149746015701801A910AA20AB30A74
:1027B00040815181628173814F3FBFEF5B076B079F
:1027C0007B0739F1EC01B881A0915E16BA1759F078
:1027D000C016D106E206F30630F010821182128292
:1027E000138281E017C084169506A606B70658F432
:1027F000481959096A097B094083518362837383AD
:10280000A1DF80E007C0108211821282138281E072
:1028100001C080E00F900FBEDF91CF911F910F910B
:10282000FF90EF90DF90CF90BF90AF909F908F90F0
:10283000089581E080935F16089580911517909117
:102840001617089580916416882331F080915616EA
:10285000811104C082E0089581E0089580E0089528
:102860000F931F93CF93DF93FC01892B09F477C05B
:10287000828DA0911517B09116175A969C918917C1
:1028800008F063C04685578560897189772394F085
:10289000A0911517B09116175A969C914AE050E0F6
:1028A00060E070E0491B510961097109468757874B
:1028B000608B718B248535854BE0849FC00111248A
:1028C0008955994E28173907B9F5EF018F010E5F29
:1028D0001F4FC8010E941504E0911517F0911617BB
:1028E000E28DEA8F809165168E1710F4E0936516DD
:1028F0008BE08E9FF0011124E955F94E0180F281A1
:10290000E02DFF83EE832681378139872887A681D2
:10291000B78115961C930E93149717830683EA8D3F
:102920008E9FF0011124E955F94EFD87EC878081D7
:102930008F5F808381E016C0A0911517B0911617A4
:102940005A968C91828F81E00DC095A5E091151764
:10295000F0911617828D981720F080E003C080E078
:1029600001C081E0DF91CF911F910F9108950F93E6
:102970001F93CF93DF93FC01892B09F449C086A5EF
:10298000815086A7228D95A5291709F443C081118E
:1029900043C0EF018F010E5F1F4FC8010E94150455
:1029A000EDA5EA8F8AE090E0A0E0B0E08E1B9109EF
:1029B000A109B1098E879F87A88BB98B8091651675
:1029C0008E1710F4E09365168BE08E9FF0011124B2
:1029D000E955F94E0180F281E02DFF83EE832681D7
:1029E000378139872887A681B78115961C930E9366
:1029F000149717830683EA8D8E9FF0011124E95501
:102A0000F94EFD87EC8780818F5F808381E005C070
:102A100080E003C080E001C080E0DF91CF911F9192
:102A20000F9108950F931F93CF93DF93FC01892B90
:102A300009F45AC085A5861708F4862F928D891748
:102A400009F452C026A5213009F04EC0828F468578
:102A5000578560897189772364F04AE050E060E02F
:102A600070E0481B51096109710946875787608BDF
:102A7000718B248535854BE0949FC00111248955C5
:102A8000994E2817390781F5EF018F010E5F1F4F0F
:102A9000C8010E941504EA8D809165168E1710F406
:102AA000E09365168BE08E9FF0011124E955F94EF5
:102AB0000180F281E02DFF83EE8326813781398703
:102AC0002887A681B78115961C930E9314971783B8
:102AD0000683EA8D8E9FF0011124E955F94EFD879A
:102AE000EC8780818F5F8083DF91CF911F910F9161
:102AF0000895CF92DF92EF92FF92E0911517F09137
:102B000016176685778580899189E0911517F09170
:102B10001617A0911517B09116175A962C910F2ED3
:102B2000FAE0CF2ED12CE12CF12CF02DC21AD108D5
:102B3000E108F108C686D786E08AF18AFF90EF9017
:102B4000DF90CF9008958091151790911617892BDB
:102B500039F0E0911517F091161786A58F5F86A7BB
:102B6000809115179091161708954F925F926F926A
:102B70007F92AF92BF92CF92DF92EF92FF920F932C
:102B80001F93CF93DF93280139010FB6F8940F926A
:102B9000E0911517F0911617C82FD0E0EC0FFD1F2C
:102BA00083A9823079F1E0911517F0911617CE01C3
:102BB000880F991F880F991FE80FF91F87A590A903
:102BC000A1A9B2A9409550956095709548235923C5
:102BD0006A237B2347A750AB61AB72ABE09115171B
:102BE000F0911617EC0FFD1F81E083ABA114B10427
:102BF000C104D10439F041E0C601B5010E94790D4C
:102C00000E9491040F900FBE0FB6F8940F92E1143A
:102C1000F104A1F0E0911517F0911617CE01880F7D
:102C2000991F880F991FE80FF91F87A590A9A1A9DF
:102C3000B2A9F70180839183A283B383E091151732
:102C4000F0911617EC0FFD1F83A98230E9F4E09193
:102C50001517F0911617CE01880F991F880F991F2D
:102C6000E80FF91F87A590A9A1A9B2A94094509493
:102C700060947094482259226A227B2247A650AA67
:102C800061AA72AA81E001C080E0209115173091FD
:102C90001617C20FD31F1BAA0F900FBEDF91CF9143
:102CA0001F910F91FF90EF90DF90CF90BF90AF906A
:102CB0007F906F905F904F9008958F929F92AF9208
:102CC000BF92EF92FF920F93CF93DF93DC010FB689
:102CD000F8940F92E114F10489F0E62FF0E0EE0F82
:102CE000FF1FEE0FFF1FE80FF91F87A490A8A1A8F0
:102CF000B2A8F70180829182A282B38270E0FD01C6
:102D0000E60FF71F83A992E093AB023001F118F4AC
:102D1000013031F04DC0033079F10430D1F148C0B9
:102D2000660F771F660F771FFD01E60FF71F87A459
:102D300090A8A1A8B2A8BA01A901482959296A29CD
:102D40007B2947A750AB61AB72AB01E034C0660F83
:102D5000771F660F771FFD01E60FF71F47A550A9E4
:102D600061A972A94F5F5F4F6F4F7F4F47A750AB6D
:102D700061AB72AB01E01FC0660F771F660F771F54
:102D8000FD01E60FF71F27A730AB41AB52AB01E0C7
:102D900012C0823079F0660F771F660F771FFD0132
:102DA000E60FF71F27A730AB41AB52AB01E003C0E2
:102DB00001E001C000E0813009F069C01C96ED918E
:102DC000FC911D971696CD91DC91179718968D91D1
:102DD0009C9119979F838E831896CD91DC911997BA
:102DE00016968D919C9117979D838C8381819281FA
:102DF0009D012E5F3F4F8217930731F418968D91F6
:102E00009C911997928381831D961C921E921C9708
:102E10008081815080835A96EC915A9780916516F3
:102E20008E1710F4E09365168BE08E9FF00111244D
:102E3000E955F94E0180F281E02D1796FC93EE934F
:102E400016974681578119965C934E931897C681C1
:102E5000D7813D832C83378326835A96EC915A97EA
:102E60008E9FF0011124E955F94E1D96FC93EE93C7
:102E70001C9780818F5F80835A969C91E0911517F3
:102E8000F0911617828D891710F40E9491040F900B
:102E90000FBE802FDF91CF910F91FF90EF90BF90E9
:102EA000AF909F908F9008958F929F92AF92BF9214
:102EB000CF92DF92EF92FF920F93CF93DF93DC01DB
:102EC000E114F10489F0E62FF0E0EE0FFF1FEE0FA2
:102ED000FF1FE80FF91F87A490A8A1A8B2A8F701C7
:102EE00080829182A282B38270E0FD01E60FF71F1B
:102EF00093A982E083AB023001F118F4013031F084
:102F00004DC0033079F10430D1F148C0660F771F0E
:102F1000660F771FFD01E60FF71F87A490A8A1A8F1
:102F2000B2A8BA01A901482959296A297B2947A7CA
:102F300050AB61AB72AB81E034C0660F771F660F98
:102F4000771FFD01E60FF71F47A550A961A972A9D8
:102F50004F5F5F4F6F4F7F4F47A750AB61AB72AB77
:102F600081E01FC0660F771F660F771FFD01E60F18
:102F7000F71F27A730AB41AB52AB81E012C09230B4
:102F800079F0660F771F660F771FFD01E60FF71FB9
:102F900027A730AB41AB52AB81E003C081E001C059
:102FA00080E0913009F096C09091561691115FC063
:102FB0001C96ED91FC911D971696CD91DC9117977B
:102FC00018962D913C9119973F832E831896CD9199
:102FD000DC91199716962D913C9117973D832C8380
:102FE000418152819D012E5F3F4F4217530731F4BB
:102FF00018964D915C911997528341831D961C92AE
:103000001E921C979081915090835A96EC915A97FA
:10301000909165169E1710F4E09365169BE09E9FB5
:10302000F0011124E955F94E0180F281E02D179647
:10303000FC93EE9316974681578119965C934E93B5
:103040001897C681D7813D832C83378326835A9670
:10305000EC915A979E9FF0011124E955F94E1D9667
:10306000FC93EE931C9790819F5F908321C062E850
:1030700076E1FB01C181D2815396DC93CE935297C6
:103080002E813F8155963C932E9354974E815F81BC
:103090009D01225F3F4FFA01358324833F832E83B6
:1030A00059967C936E935897FB0190819F5F908314
:1030B0005A962C91E0911517F0911617928D921750
:1030C00048F4C114D10419F091E0F601908391E025
:1030D00090935F16DF91CF910F91FF90EF90DF906B
:1030E000CF90BF90AF909F908F900895009721F45C
:1030F00080911517909116170FB6F8940F9270E003
:10310000FC01E60FF71F23A9223031F4FC01E60F82
:10311000F71F13AA81E001C080E00F900FBE089551
:10312000DC01E0912117F0912217808191E081115B
:1031300090E09C93911108C00780F085E02D60819C
:10314000718182819381089560E070E0CB010895E0
:10315000CF92DF92EF92FF920F931F93FC01428375
:103160005383648375839387828704171507260723
:103170003707C0F00C191D092E093F098685978570
:10318000A089B189081719072A073B0700F5BF0175
:103190006E5F7F4F80911F17909120170E94D80378
:1031A00080E018C00C151D052E053F0528F44C15B0
:1031B0005D056E057F0568F4BF016E5F7F4F8091EE
:1031C0002117909122170E94D80380E003C081E06C
:1031D00001C081E01F910F91FF90EF90DF90CF90A1
:1031E00008950FB6F8940F9280911D1790911E17B5
:1031F000892BE9F48EE297E10E94C30383E297E111
:103200000E94C3038EE297E19093221780932117C7
:1032100083E297E19093201780931F1740E067E0C7
:103220008AE00E94860690931E1780931D170F90C8
:103230000FBE0895EF92FF920F93D3DF80911D1779
:1032400090911E17892B91F00F2EFBE1EF2EF7E1E5
:10325000FF2EF02D03E020E030E040EC50E064E78A
:1032600072E087ED90E00E941B0E01C080E00F919C
:10327000FF90EF9008958F929F92AF92BF92CF925E
:10328000DF92EF92FF920F931F93CF93DF93CDB70F
:10329000DEB727970FB6F894DEBF0FBECDBFE09123
:1032A0001D17F0911E17309781F169832A833B83A4
:1032B0004C835D839F838E836630F4F4C3DA82305F
:1032C00069F400E0A7019601BE016F5F7F4F809116
:1032D0001D1790911E170E94A90618C000E020E05B
:1032E00030E0A901BE016F5F7F4F80911D17909163
:1032F0001E170E94A9060AC020E0A801BE016F5F48
:103300007F4FCF010E943B0701C080E027960FB698
:10331000F894DEBF0FBECDBFDF91CF911F910F910B
:10332000FF90EF90DF90CF90BF90AF909F908F90E5
:1033300008958F929F92AF92BF92CF92DF92EF92B9
:10334000FF920F931F93CF93DF933BC00780F085CD
:10335000E02D80809180A280B380C085D1858E01D0
:103360000E5F1F4FC8010E941504EC89FD89CE0134
:1033700019958E8982FF25C08E859F85A889B98978
:10338000880D991DAA1DBB1D88169906AA06BB06A5
:1033900070F48A839B83AC83BD83DB87CA87B801C3
:1033A00080912117909122170E94D8030AC0C12C46
:1033B000D12C760100E010E0A501940160E0CE017F
:1033C0005ADFE0912117F091221780818111BECF41
:1033D00080911F17909120179093221780932117A7
:1033E000F0932017E0931F17DF91CF911F910F915A
:1033F000FF90EF90DF90CF90BF90AF909F908F9015
:103400000895CF92DF92EF92FF92CF93DF93EC017A
:103410000E94A50E6B017C018091171790911817DF
:10342000A0911917B0911A17C816D906EA06FB061B
:1034300020F47FDF81E0888301C01882C0921717D3
:10344000D0921817E0921917F0921A17C701B60117
:10345000DF91CF91FF90EF90DF90CF9008954F9242
:103460005F926F927F928F929F92AF92BF92CF9214
:10347000DF92EF92FF920F931F93CF93DF934B0155
:103480005C0129013A01E0912117F0912217078090
:10349000F085E02DC085D185CE0102960E941504ED
:1034A0008E8982FF1BC04E855F8568897989480DAA
:1034B000591D6A1D7B1D7501640193018201CE01B6
:1034C00047DE882369F0C12CD12C760100E010E0A2
:1034D000A501940160E0CE01CEDE02C08E7F8E8B0E
:1034E000EC89FD89CE011995DF91CF911F910F9144
:1034F000FF90EF90DF90CF90BF90AF909F908F9014
:103500007F906F905F904F9008958F929F92AF92AF
:10351000BF92CF92DF92EF92FF921F93CF93DF93F0
:103520001F92CDB7DEB76B017C01142F0E949F0E56
:10353000CE01019666DF4B015C01898181112DC0AE
:1035400011110DC08C149D04AE04BF0440F00E9404
:10355000DF0FA5019401C701B60181DF20C011234F
:1035600041F0E0911F17F0912017808111E0811147
:1035700010E0B701A601481959096A097B09212FF2
:1035800080911D1790911E170E94B6080E94DF0FB0
:10359000811105C00E94910402C00E94DF0F0F90AC
:1035A000DF91CF911F91FF90EF90DF90CF90BF9070
:1035B000AF909F908F900895AF92BF92CF92DF927D
:1035C000EF92FF920F931F93CF93DF93CDB7DEB7A8
:1035D00028970FB6F894DEBF0FBECDBF82C0898199
:1035E00088230CF47EC0AE80BF80D5011C968D91DF
:1035F0009C911D97892B21F0C50102960E9415040C
:10360000CE010896FEDE8B019C01E9810E2E000C96
:10361000FF0BEA30F10508F064C08827EE58FF4F31
:103620008F4F0C94B32EF50186898160868BCA80FA
:10363000DB80EC80FD8046855785608971894C0D63
:103640005D1D6E1D7F1DC50183DD882309F449C002
:10365000D5015496ED91FC915597C5011995F50149
:10366000868982FF3EC04A815B816C817D8186852F
:103670009785A089B1899A01AB01280F391F4A1F8C
:103680005B1FC12CD12C760100E010E060E0C50189
:10369000F2DD27C0D50156968C9156978E7F5696AF
:1036A0008C931FC0F50186898160868B4A815B817E
:1036B0006C817D8146875787608B718B400F511FCE
:1036C000621F731F68017901C50142DD0AC0F5015F
:1036D000868981FD04C0C5010E94860302C08E7FD9
:1036E000868B20E030E0A901BE016F5F7F4F8091A3
:1036F0001D1790911E170E947607811170CF289692
:103700000FB6F894DEBF0FBECDBFDF91CF911F91F2
:103710000F91FF90EF90DF90CF90BF90AF90089502
:10372000089584B1806884B985B1806885B90895A9
:1037300083B1806883B90895F4DF2FEF80E792E0CA
:10374000215080409040E1F700C00000F1DFF5CF4C
:10375000E8DF2FEF87EA91E6215080409040E1F7C3
:1037600000C00000E5DFF5CFCF93DF93CDB7DEB724
:1037700066970FB6F894DEBF0FBECDBF43E050E0B2
:1037800060E070E080917218909173180E94DC01E3
:10379000CC24CA94DC2C760101E021E043E050E027
:1037A00060E070E080918C1890918D180E943C012F
:1037B000DC01CB0183709927AA27BB270397A105BA
:1037C000B10531F58BD0CDD2CBD3C1D2CED3C4D2BB
:1037D00062E0CE010196CAD286E1FE013196A6E7EB
:1037E000B8E101900D928A95E1F70FEF1FEF980174
:1037F00046E150E066E778E180918E1890918F184D
:103800000E94770A64E477E080E090E00E94201153
:1038100063E070E080E090E00E942011AFCFEF9273
:10382000FF920F93E12CF12C082F20E030E040ECC8
:1038300050E06CE772E084EB9BE10E941B0E0F915D
:10384000FF90EF90089580939118909392189F9312
:103850008F9384E892E09F938F930E943F3042E0E1
:1038600050E060E070E080918C1890918D180E947B
:10387000DC010F900F900F900F90089583E00E944D
:10388000AE2583E29CE10C94D32508950E94D825AF
:1038900080939018882341F085E992E09F938F935D
:1038A0000E943F300F900F900895CC24CA94DC2CD6
:1038B000760101E021E042E050E060E070E08091BC
:1038C0007218909173180E943C0161FDDFDF63E084
:1038D00070E080E090E00E942011E7CF8091911885
:1038E000909192180895EF92FF920F93082FC6DFE0
:1038F000E12CF12C20E030E040EC50E06DEA72E089
:1039000085E59CE10E941B0E0F91FF90EF900895BA
:103910000F9343E060E081E00E9486069093751863
:103920008093741800E020E030E0A90160E070E0CE
:103930000E94A9060F9108950F9343E060E081E093
:103940000E948606909371188093701800E020E022
:1039500030E0A90160E070E00E94A9060F9108958F
:1039600040E062E083E00E94860690936D188093A9
:103970006C1808950E94290190938D1880938C18DB
:103980000E9429019093731880937218089541E062
:1039900060E070E08CE290E00E94150A90938F182E
:1039A00080938E1841E060E070E08CE290E00E942D
:1039B000150A90936F1880936E1808950FEF1FEFFC
:1039C000980146E150E063E978E180916E189091AA
:1039D0006F180E94800BC3E9D8E1998188811F92FA
:1039E0009F931F928F9388EC92E09F938F930E94F6
:1039F0003F3089810F900F900F900F900F900F9094
:103A0000843079F48091951867D100E020E030E0AF
:103A1000A90160E070E080917018909171180E9487
:103A2000A90666E070E080E090E00E942011C6CF19
:103A3000EF92FF920F93E12CF12C082F20E030E061
:103A400040EC50E06EEF72E08EED9CE10E941B0EA8
:103A50000F91FF90EF9008950F931F93CF93DF93F3
:103A6000CDB7DEB764970FB6F894DEBF0FBECDBFFB
:103A700081E00E94B32A19D595D79F938F938CE04C
:103A800093E09F938F930E943F308DD68BD79F9367
:103A90008F938FE193E09F938F930E943F308E012D
:103AA0000F5F1F4FC80113D57DD71F930F939F93AF
:103AB0008F9388E393E09F938F930E943F30C801D8
:103AC00022D570D79F938F931F930F938CE493E02D
:103AD0009F938F930E943F30A80161E673E082E8D4
:103AE00093E03FD75FD79F938F931F930F9381E608
:103AF00093E09F938F9382E893E09F938F9383E962
:103B000093E09F938F930E943F3030D54BD79F9384
:103B10008F9389EC93E09F938F930E943F300FB671
:103B2000F894DEBF0FBECDBF81E01AD63BD79F937E
:103B30008F9388ED93E09F938F930E943F3084EFA3
:103B400091E019D62FD79F938F9381E08F9384EFC5
:103B50008F9389EF93E09F938F930E943F300FB62E
:103B6000F894DEBF0FBECDBF14E680E005D5082F68
:103B700019D79F938F931F921F9389E194E09F938E
:103B80008F930E943F300F900F900F900F900F90E7
:103B90000F90083059F080E00E94172B66E371E027
:103BA00080E090E00E9420111150F9F6083021F4D5
:103BB00081E00E94F92A09C081E00E94082B80E080
:103BC0000E94D62A0E949104FDCF64960FB6F89405
:103BD000DEBF0FBECDBFDF91CF911F910F91089532
:103BE000CF93DF9300D01F92CDB7DEB781E04FD4E3
:103BF00062E070E080E090E00E94201180E047D415
:103C000066E970E080E090E00E942011F9D324DFA3
:103C10000E94A50E69837A838B839C830FEF1FEF2D
:103C2000980146E150E066E778E180918E18909126
:103C30008F180E94800B8C014AEB50E060E070E02E
:103C4000CE0101960E94BB10012BA1F083E00E94DF
:103C5000292B66E778E180E0B8D4A4D69F938F93B0
:103C600089E394E09F938F930E943F300F900F90D1
:103C70000F900F9064E670E080E090E00E942011C9
:103C8000CDCFEF92FF920F93E12CF12C082F20E083
:103C900030E040EC50E062E674E080EF9DE10E948D
:103CA0001B0E0F91FF90EF9008950F938CE9809376
:103CB000A91843E060E081E00E9486069093AB186B
:103CC0008093AA1800E020E030E0A90160E070E0F5
:103CD0000E94A9060F9108950F93CF93C82F4FEF1D
:103CE0005FEFBA018091AA189091AB180E94050865
:103CF000813071F4C093A91800E020E030E0A90100
:103D000060E070E08091AA189091AB180E94A9061B
:103D1000CF910F9108950F934FEF5FEFBA0180910C
:103D2000AA189091AB180E940508813061F400E058
:103D300020E030E0A90160E070E08091AA18909145
:103D4000AB180E94A9068091A9180F91089590932D
:103D5000AD188093AC1808959093C8188093C71835
:103D600008959093C6188093C51808951F93CF9314
:103D7000DF93EC01162F8091AD188F938091AC18D2
:103D80008F938FE694E09F938F930E943F308091B2
:103D9000C8188F938091C7188F9384E894E09F93FD
:103DA0008F930E943F308091C6188F938091C518E1
:103DB0008F9385E994E09F938F930E943F30EEEAC2
:103DC000F8E1108386E081838091C7189091C8182C
:103DD000928383838091AC189091AD1894838583EE
:103DE0002091C5188091C6188683278390E0982F6C
:103DF0008827820F911D9F938F9382EA94E09F936F
:103E00008F930E943F3086E1EEEAF8E1DE010190F7
:103E10000D928A95E1F78DB79EB740960FB6F8944C
:103E20009EBF0FBE8DBFCE01DF91CF911F91089530
:103E30004FEF5FEFBA0180917018909171180E9456
:103E40000508813061F481EB94E09F938F930E9489
:103E50003F3061DF682F81E0DAD60F900F9066E087
:103E600070E080E090E00E942011E2CFEF92FF929C
:103E70000F93E5D6E12CF12C03E020E030E040EC9C
:103E800050E06AED74E088E19FE10E941B0E0F9103
:103E9000FF90EF9008952ED1811109C083EE94E038
:103EA0009F938F930E943F300F900F9008958AE167
:103EB00095E09F938F930E943F300F900F9008954D
:103EC00031D1882341F082E395E09F938F930E9444
:103ED0003F300F900F9066E070E080E090E00E942D
:103EE000201135D1882341F086E695E09F938F938A
:103EF0000E943F300F900F9061E070E080E090E012
:103F00000C9420110895CC24CA94DC2C760101E095
:103F100021E041E050E060E070E080917218909103
:103F200073180E943C01CCDF38D162D070933C17EB
:103F300060933B171DD15CD070933A17609339178B
:103F400041E050E060E070E080918C1890918D1815
:103F50000E94DC0160E070E0CB010E942011D3CF11
:103F600080913B1790913C1708958091391790915B
:103F70003A170895EF92FF920F93082F8CDFE12CF0
:103F8000F12C20E030E040EC50E061EA75E083E89D
:103F90009FE10E941B0E0F91FF90EF900895B8DCF7
:103FA000CBDCDEDCE7DC81DEF2DC60916E18709148
:103FB0006F1881E02CC2089581E0DCDF81E093DCA2
:103FC00082E02DDC84E05DDE83E032DD83E090E0A2
:103FD0004DCF089580E00E94F229E1DFEDCF0895F2
:103FE000F9DF8BEB95E00E9452300E94670EFFCF05
:103FF00033D088F09F5790F0B92F9927B751A0F090
:10400000D1F0660F771F881F991F1AF0BA95C9F76C
:1040100012C0B13081F03AD0B1E0089537C0672FB7
:10402000782F8827B85F39F0B93FCCF3869577951C
:104030006795B395D9F73EF4909580957095619505
:104040007F4F8F4F9F4F089557FD9058440F551F36
:1040500059F05F3F71F04795880F97FB991F61F00A
:104060009F3F79F087950895121613061406551F81
:10407000F2CF4695F1DF08C0161617061806991FED
:10408000F1CF86957105610508940895E894BB27E2
:1040900066277727CB0197F908956530F1F4FA0187
:1040A00080818F7390E0982F88272181822B9093B5
:1040B0000A02809309028281F0E48F9FC0011124DB
:1040C000FA01238126952695822B909308028093EE
:1040D000070281E080933D170895643051F080E03D
:1040E00090E4909308028093070290930A028093D1
:1040F000090208950F931F930DE410E220E034E2CB
:1041000044EF50E060E087E20E944B2B90933F1712
:1041100080933E1721E0892B09F020E0822F1F9128
:104120000F91089580913E1790913F17009759F095
:1041300040E060E070E00E949C2B843031F41092EB
:104140003D1780E0089582E0089583E0089580910E
:104150003E1790913F17009739F064E00E94E82BDA
:10416000853021F083E0089582E0089580E008958D
:104170006091090270910A0280E090E00E94C62DD1
:1041800020E030E048EC52E40E942B2E20E038EF93
:104190004FE756E40C945B2D0895609107027091EF
:1041A000080280E090E00E94C62D20E030E045E269
:1041B00053E40E942B2E20E038EF4FE756E40E9494
:1041C0005B2D20E030E040E252E40C94F42C0895A2
:1041D0000F931F93CF93DF931F921F92CDB7DEB73C
:1041E0008C0119822DC0E0917717EC3250F481E0F8
:1041F0008E0F80937717F0E0E755F84E8A81808321
:1042000002C0109277178A818A30D1F440917717D3
:1042100050E0FA01E955F84E1082415051099E01D3
:104220002F5F3F4F69EA77E180917A1790917B1772
:104230000E943C0B898181110E9491041092771792
:10424000BE016E5F7F4FC80137D6882361F20F90A1
:104250000F90DF91CF911F910F9108950F931F93AE
:10426000CF93DF938C01EB0180917A1790917B17AC
:104270000E94470AB80180E497E10E94203020970D
:1042800079F0E0E4F7E101900020E9F7319780E26E
:1042900090E091838083BE0180E497E10E94153015
:1042A000E0E4F7E1DF010D900020E9F711978DE0E0
:1042B0009AE011969C938E9312961C920190002086
:1042C000E9F73197E054F741AE2F80E497E1AC0174
:1042D0006A2F80917C1790917D1799D5811111C01B
:1042E00008E215E020E030E04DE250E063E078E1E4
:1042F00080917A1790917B170E94800B83E098E160
:1043000002C080E090E0DF91CF911F910F9108955E
:104310002F923F924F925F926F927F928F929F92D5
:10432000AF92BF92CF92DF92EF92FF920F931F93C3
:10433000CF93DF935C01FC0101900020E9F73197F6
:104340006F01C81AD90A5C2C0F2EF6E68F2EF8E002
:104350009F2EF02DE12CF12C4C2C3701F401018122
:104360001281E80109900020E9F72197C01BD10BC9
:104370003C2EF9E0CF16D10458F0F4012080FEE085
:104380002F1206C0B801C5010E94F02F892B09F534
:10439000442D351408F44C2F50E0B801C5010E949B
:1043A0002730892B49F4F301EE0FFF1FE60DF71DAF
:1043B000EA59F74F20800DC08FEFE81AF80AE3E0C2
:1043C0008E0E911CF1E1EF16F10439F66894222467
:1043D00024F8822DDF91CF911F910F91FF90EF90E4
:1043E000DF90CF90BF90AF909F908F907F906F9015
:1043F0005F904F903F902F90089530DF89CF0895C0
:1044000080917A1790917B170C94470A08958F92A8
:104410009F92AF92CF92EF920F931F93CF93C82F9B
:104420008B0141E060E070E088EC90E00E94150AAA
:1044300090937B1780937A171093791700937817CE
:104440000F2EF8EE8F2EF0E29F2EF02D6894AA2406
:10445000A6F86894CC24C6F8E12C00E023E040E004
:1044600051EE60E070E08C2F06D490937D1780931E
:104470007C17E7E0F1E0808180618083CF911F911C
:104480000F91EF90CF90AF909F908F9008958823D9
:1044900031F0E8E0F1E080818F7E80830895E8E0EC
:1044A000F1E0808180618083089560E070E08CEEAF
:1044B00095E0D4DEE3E0F8E101900020E9F73197E0
:1044C000E350F84181E0759708F080E00895CF93BC
:1044D000DF93EC0160E070E08DEF95E0BFDEE3E09C
:1044E000F8E101900020E9F7E451F84139F463E084
:1044F00078E1CE010E94203080E002C0188281E085
:10450000DF91CF910895FC0101900020E9F79F0110
:10451000215131092817390729F4BC018BE296E0B3
:104520006CCF089589E00895FC0101900020E9F71F
:104530009F01215131092817390729F4BC018AE369
:1045400096E05BCF089589E00895FC01019000207A
:10455000E9F79F01215231092817390729F4BC01D5
:1045600089E496E04ACF089589E0089560E070E01C
:1045700088E896E042CF08950F931F93E82FF0E06C
:10458000EE0FFF1FEE59F74F6081718181E996E0D0
:1045900034DF811114C008E215E020E030E04DE284
:1045A00050E063E078E180917A1790917B170E9448
:1045B000800B882321F083E098E1AADE03C083E02A
:1045C00098E1A6DE1F910F9108950F931F93CF934B
:1045D000DF931F92CDB7DEB7DB0111969C91119747
:1045E000953108F0B4C0992381F160E070E0272F85
:1045F00030E0462F50E0FD01E40FF51F92819295C7
:104600009F709A3010F0995C01C0905DF901EC56F2
:10461000F84E90832F5F3F4FFD01E40FF51F92810D
:104620009F70492F50E04A30510514F0995C01C049
:10463000905DF901EC56F84E90837E5F6F5F1196A6
:104640009C911197691798F201C070E0E72FF0E094
:10465000EC56F84E10824C91811103C08AE996E025
:1046600002C08CE996E024E937E13F932F931F9233
:104670004F939F938F9380EA96E09F938F9386ED5D
:1046800097E19F938F930E94823060E070E086ED07
:1046900097E1B3DE0FB6F894DEBF0FBECDBF811138
:1046A00059C008E215E020E030E04DE250E063E060
:1046B00078E180917A1790917B170E94800B882374
:1046C00009F447C083E098E123DE8E3009F042C050
:1046D00087E089838091781790917917892BA9F1C8
:1046E000BE016F5F7F4F83E098E168D180937E17B2
:1046F000E981F0E0ED5FF74EDF010D900020E9F772
:104700001197AE1BBF0BAA2391F0BB27CD010197D8
:104710009C0112F42F5F3F4F3595279520937F170B
:10472000AF014F5F5F4F64E180E897E173D101E033
:1047300010E020E030E046E150E06EE777E1809164
:104740007817909179170E94770A8EE003C084E170
:1047500001C080E00F90DF91CF911F910F910895DC
:10476000813019F060EB76E002C069E877E084EB15
:1047700096E043CE08959F938F9385EE96E09F93A6
:104780008F9386ED97E19F938F930E94823060E034
:1047900070E086ED97E131DE0F900F900F900F9053
:1047A0000F900F9008952F923F924F925F926F92C9
:1047B0007F928F929F92AF92BF92CF92DF92EF92B1
:1047C000FF920F931F93CF93DF93CDB7DEB7A097E0
:1047D0000FB6F894DEBF0FBECDBF62E177E08EE189
:1047E00097E03CDD95DD8111A3C080E2E2E2F2E0DA
:1047F000DE01119601900D928A95E1F79E012F5FDF
:104800003F4F6901E12CF12C0F2EFAE2AF2EF7E0B9
:10481000BF2EF02D06ED17E10F2EF3E44F2EF7E03B
:104820005F2EF02D0F2EFAE58F2EF7E09F2EF02D44
:104830000F2EF4E76F2EF7E07F2EF02D3E2C2F2C5D
:10484000FF92EF92BF92AF921F930F930E9482301C
:1048500060E070E0C80102DD5BDD0F900F900F900B
:104860000F900F900F90811163C032E03E15E8F475
:10487000F60183818F9382818F9381818F938081D1
:104880008F93FF92EF925F924F921F930F930E942C
:10489000823060E070E0C801E1DC3ADD0FB6F894E8
:1048A000DEBF0FBECDBF811143C02F923F929F92BA
:1048B0008F921F930F930E94823060E070E0C801D6
:1048C000CDDC26DD0F900F900F900F900F900F9082
:1048D00081112EC02F923F927F926F921F930F9360
:1048E0000E94823060E070E0C801B8DC11DD0F90FA
:1048F0000F900F900F900F900F90811119C03FEF04
:10490000E31AF30A84E0C80ED11C98E0E916F1041A
:1049100009F094CF60E070E08CE897E09FDCF8DC71
:10492000811106C060E070E08DE997E097DCF0DC73
:10493000A0960FB6F894DEBF0FBECDBFDF91CF912A
:104940001F910F91FF90EF90DF90CF90BF90AF90AD
:104950009F908F907F906F905F904F903F902F909F
:104960000895EF92FF920F931F93CF93DF93EC0183
:104970008B017A0181E0F4DE81110DC0CE01D4DD1E
:10498000811109C0C801E1DD811105C0C701BBDD8E
:10499000811101C0EBDDDF91CF911F910F91FF904D
:1049A000EF90089590E0FC01EE0FFF1F8E0F9F1F08
:1049B000FC01EA59F74F818192810895DC0100974B
:1049C00029F1FB012081FC0101900020E9F73197DA
:1049D000E81BF90B822F90E0E817F907C8F080E098
:1049E00008C0880F382F330F330F830F8053890F80
:1049F0002F5FFD01E20FF11D908130ED390F3A304C
:104A000010F49111EECFFB012083089580E008950A
:104A100080E008950F931F93CF93DF93DC01EA01A9
:104A20002097E1F1FA0101900020E9F73197E41BAA
:104A3000F50B329710F532C08D01040F151F30E0D1
:104A4000AE01420F531FFA019081913428F0975321
:104A5000592F5295507F03C0592F5295507F2C0FDC
:104A60003D1FF9019181913410F0975301C090538B
:104A7000950FF80190838F5F01C080E0282F220FEF
:104A8000482F50E0FE0101900020E9F73197EC1B20
:104A9000FD0B4E175F0710F48613CECFDF91CF9139
:104AA0001F910F91089580913318860F80933318CA
:104AB00090913618913079F028F09230A9F0933027
:104AC00019F108956F3F09F048C01092331881E042
:104AD000809336180895663809F03FC01092321856
:104AE00082E0809336180895E091321881E08E0FAD
:104AF00080933218F0E0E05DF74E6083823069F514
:104B000083E08093361808959091321821E0290FA0
:104B100020933218963009F581110EC0E0E3F8E1D8
:104B2000808190E0982F88272181820F911D90939A
:104B300038188093371804C010923818109237181C
:104B400010923618E0913418F0913518309729F00A
:104B50008091371890913818199508958F929F92E7
:104B6000AF92CF92EF920F930F2EF3E58F2EF5E2D7
:104B70009F2EF02D6894AA24A4F86894CC24C4F83D
:104B8000E12C00E023E040E855E260E070E073D003
:104B900090933A18809339180F91EF90CF90AF907F
:104BA0009F908F90089590933518809334180895AE
:104BB000CF93DF93CDB7DEB729970FB6F894DEBF5A
:104BC0000FBECDBF89E0E2E4F2E09E012F5F3F4FD0
:104BD000D90101900D928A95E1F710923818109240
:104BE00037188091391890913A18009731F0422F78
:104BF000532F69E00CD180E001C082E029960FB606
:104C0000F894DEBF0FBECDBFDF91CF91089565361A
:104C10000CF064E66C390CF46CE996EF6902B001B3
:104C200011246854744F811105C070932901609359
:104C30002801089570932B0160932A010895EAE0FA
:104C4000F1E08081886180838FE39CE99093270164
:104C50008093260160E080E0DADF60E081E0D7DF6A
:104C6000E0E2F1E08081826A8083E1E2F1E080812C
:104C70008A61808308952F923F924F925F926F9244
:104C80007F928F929F92AF92CF92EF92FF920F936B
:104C90001F93CF93DF93CDB7DEB7F82E2A013B01E8
:104CA00088E090E00E94BB2E8C018F2D90E0FC01EB
:104CB000EE0FFF1FE55CF74E118300830115110510
:104CC00009F468C0880F991FFC01E55FFD4F8081E2
:104CD0009181D8018D939C938C2D90E0880F991F22
:104CE000880F991F0E94BB2E1C0186E090E00E9455
:104CF000BB2E7C014C2DB1015BD6F801F582E4821C
:104D00008A2D90E0880F991F880F991F0E94BB2E53
:104D10001C0186E090E00E94BB2E7C014A2DB1016F
:104D200047D6D8011396FC92EE92129717969C9252
:104D30008E921697FFB6F894ED91FC9111973697E5
:104D40008081826080838D909C90C301B2011ED7C8
:104D500020E030E040E051E47ED79B01AC0160E010
:104D600074E284E79BE4A7D620E030E040E85FE30C
:104D70003BD63ED9F40132976083D801ED91FC9186
:104D80001197359788E98083ED91FC91349786E0FF
:104D90008083FFBEC801DF91CF911F910F91FF90DB
:104DA000EF90CF90AF909F908F907F906F905F909B
:104DB0004F903F902F900895CF93DF93DC01892B84
:104DC00001F11296ED91FC911397938182812581D7
:104DD000981B922384819817B1F08381269528230C
:104DE000C081D181C20FD11D68838F5F95818923D6
:104DF0008383ED91FC91359780818062808380E090
:104E000003C081E001C082E0DF91CF910895EF926D
:104E1000FF920F931F93CF93DF937C01009709F4C8
:104E200041C0DC011296ED91FC9113979381828130
:104E3000981B858198238481891B8617A8F1662396
:104E400041F1842F952FDC016150462F50E04F5FD8
:104E50005F4F480F591FE701EA81FB8193818281EF
:104E60002581981B92238481981779F08C919381E6
:104E700026952923608171818B01020F111DE801A4
:104E800088839F5F8581982393831196A417B50724
:104E900011F7D701ED91FC91359780818062808375
:104EA00080E003C081E001C082E0DF91CF911F91DB
:104EB0000F91FF90EF9008950097D1F0DC011496C8
:104EC000ED91FC91159793818281981799F09281C9
:104ED000858186958923A081B181A80FB11D8C9110
:104EE000DB018C939F5F85819823928380E00895F6
:104EF00081E0089583E008951F920F920FB60F92FC
:104F000011240BB60F922F933F934F935F936F93A0
:104F10007F938F939F93AF93BF93CF93DF93EF9341
:104F2000FF93A0913B18B0913C18109711F160913C
:104F3000C6001496ED91FC9115979381828125818D
:104F4000981B92238481981761F0838126952823EA
:104F5000C081D181C20FD11D68838F5F9581892364
:104F600083831696ED91FC911797309711F0CD0140
:104F70001995FF91EF91DF91CF91BF91AF919F91E3
:104F80008F917F916F915F914F913F912F910F90F2
:104F90000BBE0F900FBE0F901F9018951F920F928F
:104FA0000FB60F9211240BB60F922F938F939F93EE
:104FB000AF93BF93EF93FF93E0913B18F0913C18B0
:104FC0003097B9F00280F381E02D938182819817A8
:104FD000B1F092818581282F26952923A081B18166
:104FE000A20FB11D2C919F5F892382832093C6005D
:104FF0000BC0E1ECF0E080818F7D808305C0E1ECA7
:10500000F0E080818F7D8083FF91EF91BF91AF9120
:105010009F918F912F910F900BBE0F900FBE0F900D
:105020001F9018951F920F920FB60F9211240BB676
:105030000F922F933F934F935F936F937F938F9331
:105040009F93AF93BF93CF93DF93EF93FF93A09181
:105050003D18B0913E18109711F16091CE00149652
:10506000ED91FC911597938182812581981B922364
:105070008481981761F0838126952823C081D1818E
:10508000C20FD11D68838F5F958189238383169614
:10509000ED91FC911797309711F0CD011995FF9183
:1050A000EF91DF91CF91BF91AF919F918F917F91C0
:1050B0006F915F914F913F912F910F900BBE0F9089
:1050C0000FBE0F901F9018951F920F920FB60F9260
:1050D00011240BB60F922F938F939F93AF93BF938F
:1050E000EF93FF93E0913D18F0913E183097B9F09F
:1050F0000280F381E02D938182819817B1F0928133
:105100008581282F26952923A081B181A20FB11D69
:105110002C919F5F892382832093CE000BC0E9EC02
:10512000F0E080818F7D808305C0E9ECF0E0808134
:105130008F7D8083FF91EF91BF91AF919F918F9170
:105140002F910F900BBE0F900FBE0F901F901895D0
:105150001F920F920FB60F9211240BB60F922F933E
:105160003F934F935F936F937F938F939F93AF93EF
:10517000BF93CF93DF93EF93FF93A0913F18B0912C
:105180004018109711F16091D6001496ED91FC91A2
:105190001597938182812581981B9223848198178A
:1051A00061F0838126952823C081D181C20FD11D52
:1051B00068838F5F9581892383831696ED91FC9197
:1051C0001797309711F0CD011995FF91EF91DF916D
:1051D000CF91BF91AF919F918F917F916F915F918F
:1051E0004F913F912F910F900BBE0F900FBE0F90DC
:1051F0001F9018951F920F920FB60F9211240BB6A5
:105200000F922F938F939F93AF93BF93EF93FF933F
:10521000E0913F18F09140183097B9F00280F38187
:10522000E02D938182819817B1F092818581282F9A
:1052300026952923A081B181A20FB11D2C919F5FDA
:10524000892382832093D6000BC0E1EDF0E08081BA
:105250008F7D808305C0E1EDF0E080818F7D8083CC
:10526000FF91EF91BF91AF919F918F912F910F90EF
:105270000BBE0F900FBE0F901F9018951F920F92AC
:105280000FB60F9211240BB60F922F933F934F93AB
:105290005F936F937F938F939F93AF93BF93CF93BE
:1052A000DF93EF93FF93A0914118B09142181097AC
:1052B00011F1609136011496ED91FC91159793814F
:1052C00082812581981B92238481981761F08381C4
:1052D00026952823C081D181C20FD11D68838F5F9D
:1052E0009581892383831696ED91FC9117973097CA
:1052F00011F0CD011995FF91EF91DF91CF91BF9101
:10530000AF919F918F917F916F915F914F913F915D
:105310002F910F900BBE0F900FBE0F901F901895FE
:105320001F920F920FB60F9211240BB60F922F936C
:105330008F939F93AF93BF93EF93FF93E0914118A7
:10534000F09142183097B9F00280F381E02D9381FB
:1053500082819817B1F092818581282F2695292383
:10536000A081B181A20FB11D2C919F5F89238283FF
:10537000209336010BC0E1E3F1E080818F7D8083D3
:1053800005C0E1E3F1E080818F7D8083FF91EF91A3
:10539000BF91AF919F918F912F910F900BBE0F9066
:1053A0000FBE0F901F901895CF93DF931F92CDB72C
:1053B000DEB7BE016F5F7F4F809143189091441814
:1053C0007BDD8111F6CF898190E00F90DF91CF9145
:1053D0000895682F8091431890914418EDDC80E087
:1053E00090E008958F929F92AF92CF92EF920F9399
:1053F000812C912C6894AA24A7F86894CC24C7F82F
:10540000E12C00E023E040E051EE60E070E033DCAE
:105410009093441880934318EEECF8E183E192E016
:1054200091838083938382830F91EF90CF90AF908D
:105430009F908F90089590E0FC01EE0FFF1FE80F02
:10544000F91FEE0FFF1FEB5BF74E238121111FC0E9
:105450009C01220F331FF901E80FF91FEE0FFF1F08
:10546000EB5BF74EA081B1814C91F901E80FF91F78
:10547000EE0FFF1FEB5BF74E81E090E0028002C071
:10548000880F991F0A94E2F7842B8C930895FC01EE
:10549000EE0FFF1FDF01A80FB91FAA0FBB1FAB5BE9
:1054A000B74E0D90BC91A02D2C91E80FF91FEE0F77
:1054B000FF1FEB5BF74E81E090E0028002C0880F97
:1054C000991F0A94E2F7809582238C93089590E0C7
:1054D000FC01EE0FFF1FE80FF91FEE0FFF1FEB5B44
:1054E000F74E2381211120C09C01220F331FF901A7
:1054F000E80FF91FEE0FFF1FEB5BF74EA081B181A4
:105500004C91F901E80FF91FEE0FFF1FEB5BF74E0F
:1055100081E090E0028002C0880F991F0A94E2F7B0
:10552000809584238C930895FC01EE0FFF1FDF010B
:10553000A80FB91FAA0FBB1FAB5BB74E0D90BC9154
:10554000A02D2C91E80FF91FEE0FFF1FEB5BF74E1C
:1055500081E090E0028002C0880F991F0A94E2F770
:10556000822B8C930895CF93DF9390E0FC01EE0F94
:10557000FF1FDF01A80FB91FAA0FBB1FAB5BB74E00
:10558000CD91DC911197488121E030E012960C908A
:10559000129702C0220F331F0A94E2F724272883B0
:1055A000FD0181E08483DF91CF910895CF93DF9354
:1055B00090E0FC01EE0FFF1FDF01A80FB91FAA0F3B
:1055C000BB1FAB5BB74ECD91DC911197488121E0B9
:1055D00030E012960C90129702C0220F331F0A94EB
:1055E000E2F724272883FD0182E08483DF91CF91B5
:1055F0000895282F30E0F901EE0FFF1FE20FF31F8F
:10560000EE0FFF1FEB5BF74E93E0948360CF08959E
:10561000282F30E0F901EE0FFF1FE20FF31FEE0F0E
:10562000FF1FEB5BF74E94E0948305CF089590E065
:10563000FC01EE0FFF1FDF01A80FB91FAA0FBB1F50
:10564000AB5BB74E26E015962C931597FD0114829F
:10565000089590E0FC01EE0FFF1FDF01A80FB91FB6
:10566000AA0FBB1FAB5BB74E15961C921597FD0199
:105670001482089580916B1881110CC08CE0809386
:10568000B8008FEF8093BB0084E08093BC0081E082
:1056900080936B180895AF92BF92CF92DF92EF92F2
:1056A000FF920F931F93CF93DF93A82EB62E69011D
:1056B0007A0184E090E05FD3EC01892B61F1A8824C
:1056C00081E0B81212C0C701B60120EA36E841E015
:1056D00050E027D3DA01C9014097A109B109B69575
:1056E000A79597958795898311C0C701B60120E8D2
:1056F0003AE146E050E015D3DA01C9014097A1092B
:10570000B109B695A7959795879589831B830A83D9
:105710008C2F9D2F02C080E090E0DF91CF911F91F0
:105720000F91FF90EF90DF90CF90BF90AF900895D2
:105730008091BC0081700895FF920F931F93CF93C7
:10574000DF930097D1F14A30D0F5F42E8B01EC01B4
:10575000EFDF811136C080915E1890915F18C817F5
:10576000D90741F087DF89818093B800D0935F1813
:10577000C0935E1881E08F0D809360188881880F38
:1057800080936118FF2089F0F801A2E6B8E14FEF9D
:105790004F0D642F70E0CB010196B801680F791F9F
:1057A00081918D93E617F707D9F788EF809321024F
:1057B00085EA8093BC0084E005C086E003C087E0F2
:1057C00001C082E0DF91CF911F910F91FF9008956A
:1057D0001F93CF93DF93009729F16B3028F5162F95
:1057E000EC01A6DF811122C080915E1890915F18B4
:1057F000C817D90741F03EDF89818093B800D09364
:105800005F18C0935E18109360188881880F8160BC
:105810008093611888EF8093210285EA8093BC0011
:1058200085E005C086E003C087E001C082E0DF912B
:10583000CF911F9108951F920F920FB60F921124CE
:105840000BB60F922F933F934F935F936F937F937A
:105850008F939F93AF93BF93EF93FF93E091B90022
:105860008E2F90E0FC013897E135F10508F075C006
:105870008827E458FF4F8F4F76C210925D18E09151
:105880005D1880916018E81770F481E08E0F8093A6
:105890005D18F0E0EF59F74E80818093BB0085E8FA
:1058A0008093BC0072C084E98093BC0080915E1834
:1058B00090915F18DC011296ED91FC91139730974F
:1058C00009F463C020E040E050E064E019955DC059
:1058D000E0915D1881E08E0F80935D188091BB0090
:1058E000F0E0EF59F74E80838091B900803411F4D5
:1058F00010925D1820915D1830E08091601890E062
:1059000001972817390724F485EC8093BC003DC02B
:1059100085E88093BC0039C08091BB00E0915D18A0
:10592000F0E0EF59F74E808384E98093BC008091CA
:105930005E1890915F18DC011296ED91FC9113971F
:10594000309719F12091601841E658E165E019950A
:105950001CC085EA8093BC0018C08091B900809378
:10596000210284E08093BC0080915E1890915F18C2
:10597000DC011296ED91FC911397309731F020E005
:1059800040E050E0609121021995FF91EF91BF91A5
:10599000AF919F918F917F916F915F914F913F91C7
:1059A0002F910F900BBE0F900FBE0F901F90189568
:1059B000FC01411101C000D3842F90E09C012150D3
:1059C000310982239323892B09F0F6D2413808F05C
:1059D000F3D2128213824483440F41504583718372
:1059E000608380E090E008955058BB27AA270ED02E
:1059F00021C112D130F017D120F031F49F3F11F4C2
:105A00001EF407C10EF4E095E7FBFDC0E92F0E94EC
:105A1000242078F3BA17620773078407950720F0EC
:105A200079F4A6F50C9446200EF4E0950B2EBA2FCF
:105A3000A02D0B01B90190010C01CA01A001112494
:105A4000FF27591B99F0593F50F4503E68F11A1640
:105A5000F040A22F232F342F4427585FF3CF4695D1
:105A600037952795A795F0405395C9F77EF41F16F3
:105A7000BA0B620B730B840BBAF09150A1F0FF0FBD
:105A8000BB1F661F771F881FC2F70EC0BA0F621FA9
:105A9000731F841F48F4879577956795B795F79599
:105AA0009E3F08F0B1CF9395880F08F09927EE0F2D
:105AB0009795879508950DD0BDC0B5D048F0ACD06E
:105AC00038F021F45F3F21F09EC051110C94472023
:105AD000A0C00E94242088F39923B9F35523A1F391
